{
	"contracts/managedelection.sol": {
		"ManageElection": {
			"abi": [
				{
					"anonymous": false,
					"inputs": [
						{
							"indexed": false,
							"internalType": "uint256",
							"name": "id",
							"type": "uint256"
						},
						{
							"indexed": false,
							"internalType": "string",
							"name": "name",
							"type": "string"
						}
					],
					"name": "CandidateAdded",
					"type": "event"
				},
				{
					"anonymous": false,
					"inputs": [
						{
							"indexed": false,
							"internalType": "string",
							"name": "enrollment",
							"type": "string"
						},
						{
							"indexed": false,
							"internalType": "bytes32",
							"name": "faceHash",
							"type": "bytes32"
						},
						{
							"indexed": false,
							"internalType": "uint256",
							"name": "candidateId",
							"type": "uint256"
						}
					],
					"name": "Voted",
					"type": "event"
				},
				{
					"anonymous": false,
					"inputs": [
						{
							"indexed": false,
							"internalType": "string",
							"name": "enrollment",
							"type": "string"
						},
						{
							"indexed": false,
							"internalType": "bytes32",
							"name": "faceHash",
							"type": "bytes32"
						}
					],
					"name": "VoterRegistered",
					"type": "event"
				},
				{
					"inputs": [
						{
							"internalType": "string",
							"name": "_name",
							"type": "string"
						}
					],
					"name": "addCandidate",
					"outputs": [],
					"stateMutability": "nonpayable",
					"type": "function"
				},
				{
					"inputs": [],
					"name": "candidateCount",
					"outputs": [
						{
							"internalType": "uint256",
							"name": "",
							"type": "uint256"
						}
					],
					"stateMutability": "view",
					"type": "function"
				},
				{
					"inputs": [
						{
							"internalType": "uint256",
							"name": "",
							"type": "uint256"
						}
					],
					"name": "candidates",
					"outputs": [
						{
							"internalType": "uint256",
							"name": "id",
							"type": "uint256"
						},
						{
							"internalType": "string",
							"name": "name",
							"type": "string"
						},
						{
							"internalType": "uint256",
							"name": "voteCount",
							"type": "uint256"
						}
					],
					"stateMutability": "view",
					"type": "function"
				},
				{
					"inputs": [
						{
							"internalType": "uint256",
							"name": "id",
							"type": "uint256"
						}
					],
					"name": "getCandidate",
					"outputs": [
						{
							"internalType": "uint256",
							"name": "",
							"type": "uint256"
						},
						{
							"internalType": "string",
							"name": "",
							"type": "string"
						},
						{
							"internalType": "uint256",
							"name": "",
							"type": "uint256"
						}
					],
					"stateMutability": "view",
					"type": "function"
				},
				{
					"inputs": [
						{
							"internalType": "string",
							"name": "",
							"type": "string"
						}
					],
					"name": "hasVoted",
					"outputs": [
						{
							"internalType": "bool",
							"name": "",
							"type": "bool"
						}
					],
					"stateMutability": "view",
					"type": "function"
				},
				{
					"inputs": [
						{
							"internalType": "string",
							"name": "enrollment",
							"type": "string"
						},
						{
							"internalType": "bytes32",
							"name": "faceHash",
							"type": "bytes32"
						}
					],
					"name": "registerVoter",
					"outputs": [],
					"stateMutability": "nonpayable",
					"type": "function"
				},
				{
					"inputs": [
						{
							"internalType": "string",
							"name": "",
							"type": "string"
						}
					],
					"name": "registeredEnrollment",
					"outputs": [
						{
							"internalType": "bool",
							"name": "",
							"type": "bool"
						}
					],
					"stateMutability": "view",
					"type": "function"
				},
				{
					"inputs": [
						{
							"internalType": "bytes32",
							"name": "",
							"type": "bytes32"
						}
					],
					"name": "registeredFace",
					"outputs": [
						{
							"internalType": "bool",
							"name": "",
							"type": "bool"
						}
					],
					"stateMutability": "view",
					"type": "function"
				},
				{
					"inputs": [
						{
							"internalType": "bytes32",
							"name": "",
							"type": "bytes32"
						}
					],
					"name": "usedFace",
					"outputs": [
						{
							"internalType": "bool",
							"name": "",
							"type": "bool"
						}
					],
					"stateMutability": "view",
					"type": "function"
				},
				{
					"inputs": [
						{
							"internalType": "string",
							"name": "enrollment",
							"type": "string"
						},
						{
							"internalType": "bytes32",
							"name": "faceHash",
							"type": "bytes32"
						},
						{
							"internalType": "uint256",
							"name": "candidateId",
							"type": "uint256"
						}
					],
					"name": "vote",
					"outputs": [],
					"stateMutability": "nonpayable",
					"type": "function"
				}
			],
			"devdoc": {
				"kind": "dev",
				"methods": {},
				"version": 1
			},
			"evm": {
				"assembly": "    /* \"contracts/managedelection.sol\":60:2124  contract ManageElection {\r... */\n  mstore(0x40, 0x80)\n  callvalue\n  dup1\n  iszero\n  tag_1\n  jumpi\n  0x00\n  dup1\n  revert\ntag_1:\n  pop\n  dataSize(sub_0)\n  dup1\n  dataOffset(sub_0)\n  0x00\n  codecopy\n  0x00\n  return\nstop\n\nsub_0: assembly {\n        /* \"contracts/managedelection.sol\":60:2124  contract ManageElection {\r... */\n      mstore(0x40, 0x80)\n      callvalue\n      dup1\n      iszero\n      tag_1\n      jumpi\n      0x00\n      dup1\n      revert\n    tag_1:\n      pop\n      jumpi(tag_2, lt(calldatasize, 0x04))\n      shr(0xe0, calldataload(0x00))\n      dup1\n      0x637239c5\n      gt\n      tag_13\n      jumpi\n      dup1\n      0x637239c5\n      eq\n      tag_8\n      jumpi\n      dup1\n      0x703a4d76\n      eq\n      tag_9\n      jumpi\n      dup1\n      0x80263e7a\n      eq\n      tag_10\n      jumpi\n      dup1\n      0xa9a981a3\n      eq\n      tag_11\n      jumpi\n      dup1\n      0xb1abc372\n      eq\n      tag_12\n      jumpi\n      jump(tag_2)\n    tag_13:\n      dup1\n      0x3477ee2e\n      eq\n      tag_3\n      jumpi\n      dup1\n      0x35b8e820\n      eq\n      tag_4\n      jumpi\n      dup1\n      0x39bfeae3\n      eq\n      tag_5\n      jumpi\n      dup1\n      0x462e91ec\n      eq\n      tag_6\n      jumpi\n      dup1\n      0x4ef70324\n      eq\n      tag_7\n      jumpi\n    tag_2:\n      0x00\n      dup1\n      revert\n        /* \"contracts/managedelection.sol\":189:233  mapping(uint => Candidate) public candidates */\n    tag_3:\n      tag_14\n      0x04\n      dup1\n      calldatasize\n      sub\n      dup2\n      add\n      swap1\n      tag_15\n      swap2\n      swap1\n      tag_16\n      jump\t// in\n    tag_15:\n      tag_17\n      jump\t// in\n    tag_14:\n      mload(0x40)\n      tag_18\n      swap4\n      swap3\n      swap2\n      swap1\n      tag_19\n      jump\t// in\n    tag_18:\n      mload(0x40)\n      dup1\n      swap2\n      sub\n      swap1\n      return\n        /* \"contracts/managedelection.sol\":1943:2121  function getCandidate(uint id) public view returns (uint, string memory, uint) {\r... */\n    tag_4:\n      tag_20\n      0x04\n      dup1\n      calldatasize\n      sub\n      dup2\n      add\n      swap1\n      tag_21\n      swap2\n      swap1\n      tag_16\n      jump\t// in\n    tag_21:\n      tag_22\n      jump\t// in\n    tag_20:\n      mload(0x40)\n      tag_23\n      swap4\n      swap3\n      swap2\n      swap1\n      tag_19\n      jump\t// in\n    tag_23:\n      mload(0x40)\n      dup1\n      swap2\n      sub\n      swap1\n      return\n        /* \"contracts/managedelection.sol\":308:347  mapping(string => bool) public hasVoted */\n    tag_5:\n      tag_24\n      0x04\n      dup1\n      calldatasize\n      sub\n      dup2\n      add\n      swap1\n      tag_25\n      swap2\n      swap1\n      tag_26\n      jump\t// in\n    tag_25:\n      tag_27\n      jump\t// in\n    tag_24:\n      mload(0x40)\n      tag_28\n      swap2\n      swap1\n      tag_29\n      jump\t// in\n    tag_28:\n      mload(0x40)\n      dup1\n      swap2\n      sub\n      swap1\n      return\n        /* \"contracts/managedelection.sol\":822:1035  function addCandidate(string memory _name) public {\r... */\n    tag_6:\n      tag_30\n      0x04\n      dup1\n      calldatasize\n      sub\n      dup2\n      add\n      swap1\n      tag_31\n      swap2\n      swap1\n      tag_26\n      jump\t// in\n    tag_31:\n      tag_32\n      jump\t// in\n    tag_30:\n      stop\n        /* \"contracts/managedelection.sol\":573:624  mapping(string => bool) public registeredEnrollment */\n    tag_7:\n      tag_33\n      0x04\n      dup1\n      calldatasize\n      sub\n      dup2\n      add\n      swap1\n      tag_34\n      swap2\n      swap1\n      tag_26\n      jump\t// in\n    tag_34:\n      tag_35\n      jump\t// in\n    tag_33:\n      mload(0x40)\n      tag_36\n      swap2\n      swap1\n      tag_29\n      jump\t// in\n    tag_36:\n      mload(0x40)\n      dup1\n      swap2\n      sub\n      swap1\n      return\n        /* \"contracts/managedelection.sol\":403:443  mapping(bytes32 => bool) public usedFace */\n    tag_8:\n      tag_37\n      0x04\n      dup1\n      calldatasize\n      sub\n      dup2\n      add\n      swap1\n      tag_38\n      swap2\n      swap1\n      tag_39\n      jump\t// in\n    tag_38:\n      tag_40\n      jump\t// in\n    tag_37:\n      mload(0x40)\n      tag_41\n      swap2\n      swap1\n      tag_29\n      jump\t// in\n    tag_41:\n      mload(0x40)\n      dup1\n      swap2\n      sub\n      swap1\n      return\n        /* \"contracts/managedelection.sol\":1440:1935  function vote(string memory enrollment, bytes32 faceHash, uint candidateId) public {\r... */\n    tag_9:\n      tag_42\n      0x04\n      dup1\n      calldatasize\n      sub\n      dup2\n      add\n      swap1\n      tag_43\n      swap2\n      swap1\n      tag_44\n      jump\t// in\n    tag_43:\n      tag_45\n      jump\t// in\n    tag_42:\n      stop\n        /* \"contracts/managedelection.sol\":1043:1432  function registerVoter(string memory enrollment, bytes32 faceHash) public {\r... */\n    tag_10:\n      tag_46\n      0x04\n      dup1\n      calldatasize\n      sub\n      dup2\n      add\n      swap1\n      tag_47\n      swap2\n      swap1\n      tag_48\n      jump\t// in\n    tag_47:\n      tag_49\n      jump\t// in\n    tag_46:\n      stop\n        /* \"contracts/managedelection.sol\":240:266  uint public candidateCount */\n    tag_11:\n      tag_50\n      tag_51\n      jump\t// in\n    tag_50:\n      mload(0x40)\n      tag_52\n      swap2\n      swap1\n      tag_53\n      jump\t// in\n    tag_52:\n      mload(0x40)\n      dup1\n      swap2\n      sub\n      swap1\n      return\n        /* \"contracts/managedelection.sol\":484:530  mapping(bytes32 => bool) public registeredFace */\n    tag_12:\n      tag_54\n      0x04\n      dup1\n      calldatasize\n      sub\n      dup2\n      add\n      swap1\n      tag_55\n      swap2\n      swap1\n      tag_39\n      jump\t// in\n    tag_55:\n      tag_56\n      jump\t// in\n    tag_54:\n      mload(0x40)\n      tag_57\n      swap2\n      swap1\n      tag_29\n      jump\t// in\n    tag_57:\n      mload(0x40)\n      dup1\n      swap2\n      sub\n      swap1\n      return\n        /* \"contracts/managedelection.sol\":189:233  mapping(uint => Candidate) public candidates */\n    tag_17:\n      mstore(0x20, 0x00)\n      dup1\n      0x00\n      mstore\n      keccak256(0x00, 0x40)\n      0x00\n      swap2\n      pop\n      swap1\n      pop\n      dup1\n      0x00\n      add\n      sload\n      swap1\n      dup1\n      0x01\n      add\n      dup1\n      sload\n      tag_58\n      swap1\n      tag_59\n      jump\t// in\n    tag_58:\n      dup1\n      0x1f\n      add\n      0x20\n      dup1\n      swap2\n      div\n      mul\n      0x20\n      add\n      mload(0x40)\n      swap1\n      dup2\n      add\n      0x40\n      mstore\n      dup1\n      swap3\n      swap2\n      swap1\n      dup2\n      dup2\n      mstore\n      0x20\n      add\n      dup3\n      dup1\n      sload\n      tag_60\n      swap1\n      tag_59\n      jump\t// in\n    tag_60:\n      dup1\n      iszero\n      tag_61\n      jumpi\n      dup1\n      0x1f\n      lt\n      tag_62\n      jumpi\n      0x0100\n      dup1\n      dup4\n      sload\n      div\n      mul\n      dup4\n      mstore\n      swap2\n      0x20\n      add\n      swap2\n      jump(tag_61)\n    tag_62:\n      dup3\n      add\n      swap2\n      swap1\n      0x00\n      mstore\n      keccak256(0x00, 0x20)\n      swap1\n    tag_63:\n      dup2\n      sload\n      dup2\n      mstore\n      swap1\n      0x01\n      add\n      swap1\n      0x20\n      add\n      dup1\n      dup4\n      gt\n      tag_63\n      jumpi\n      dup3\n      swap1\n      sub\n      0x1f\n      and\n      dup3\n      add\n      swap2\n    tag_61:\n      pop\n      pop\n      pop\n      pop\n      pop\n      swap1\n      dup1\n      0x02\n      add\n      sload\n      swap1\n      pop\n      dup4\n      jump\t// out\n        /* \"contracts/managedelection.sol\":1943:2121  function getCandidate(uint id) public view returns (uint, string memory, uint) {\r... */\n    tag_22:\n        /* \"contracts/managedelection.sol\":1995:1999  uint */\n      0x00\n        /* \"contracts/managedelection.sol\":2001:2014  string memory */\n      0x60\n        /* \"contracts/managedelection.sol\":2016:2020  uint */\n      0x00\n        /* \"contracts/managedelection.sol\":2033:2051  Candidate memory c */\n      dup1\n        /* \"contracts/managedelection.sol\":2054:2064  candidates */\n      0x00\n        /* \"contracts/managedelection.sol\":2054:2068  candidates[id] */\n      dup1\n        /* \"contracts/managedelection.sol\":2065:2067  id */\n      dup7\n        /* \"contracts/managedelection.sol\":2054:2068  candidates[id] */\n      dup2\n      mstore\n      0x20\n      add\n      swap1\n      dup2\n      mstore\n      0x20\n      add\n      0x00\n      keccak256\n        /* \"contracts/managedelection.sol\":2033:2068  Candidate memory c = candidates[id] */\n      mload(0x40)\n      dup1\n      0x60\n      add\n      0x40\n      mstore\n      swap1\n      dup2\n      0x00\n      dup3\n      add\n      sload\n      dup2\n      mstore\n      0x20\n      add\n      0x01\n      dup3\n      add\n      dup1\n      sload\n      tag_65\n      swap1\n      tag_59\n      jump\t// in\n    tag_65:\n      dup1\n      0x1f\n      add\n      0x20\n      dup1\n      swap2\n      div\n      mul\n      0x20\n      add\n      mload(0x40)\n      swap1\n      dup2\n      add\n      0x40\n      mstore\n      dup1\n      swap3\n      swap2\n      swap1\n      dup2\n      dup2\n      mstore\n      0x20\n      add\n      dup3\n      dup1\n      sload\n      tag_66\n      swap1\n      tag_59\n      jump\t// in\n    tag_66:\n      dup1\n      iszero\n      tag_67\n      jumpi\n      dup1\n      0x1f\n      lt\n      tag_68\n      jumpi\n      0x0100\n      dup1\n      dup4\n      sload\n      div\n      mul\n      dup4\n      mstore\n      swap2\n      0x20\n      add\n      swap2\n      jump(tag_67)\n    tag_68:\n      dup3\n      add\n      swap2\n      swap1\n      0x00\n      mstore\n      keccak256(0x00, 0x20)\n      swap1\n    tag_69:\n      dup2\n      sload\n      dup2\n      mstore\n      swap1\n      0x01\n      add\n      swap1\n      0x20\n      add\n      dup1\n      dup4\n      gt\n      tag_69\n      jumpi\n      dup3\n      swap1\n      sub\n      0x1f\n      and\n      dup3\n      add\n      swap2\n    tag_67:\n      pop\n      pop\n      pop\n      pop\n      pop\n      dup2\n      mstore\n      0x20\n      add\n      0x02\n      dup3\n      add\n      sload\n      dup2\n      mstore\n      pop\n      pop\n      swap1\n      pop\n        /* \"contracts/managedelection.sol\":2087:2088  c */\n      dup1\n        /* \"contracts/managedelection.sol\":2087:2091  c.id */\n      0x00\n      add\n      mload\n        /* \"contracts/managedelection.sol\":2093:2094  c */\n      dup2\n        /* \"contracts/managedelection.sol\":2093:2099  c.name */\n      0x20\n      add\n      mload\n        /* \"contracts/managedelection.sol\":2101:2102  c */\n      dup3\n        /* \"contracts/managedelection.sol\":2101:2112  c.voteCount */\n      0x40\n      add\n      mload\n        /* \"contracts/managedelection.sol\":2079:2113  return (c.id, c.name, c.voteCount) */\n      swap4\n      pop\n      swap4\n      pop\n      swap4\n      pop\n      pop\n        /* \"contracts/managedelection.sol\":1943:2121  function getCandidate(uint id) public view returns (uint, string memory, uint) {\r... */\n      swap2\n      swap4\n      swap1\n      swap3\n      pop\n      jump\t// out\n        /* \"contracts/managedelection.sol\":308:347  mapping(string => bool) public hasVoted */\n    tag_27:\n      0x02\n      dup2\n      dup1\n      mload\n      0x20\n      dup2\n      add\n      dup3\n      add\n      dup1\n      mload\n      dup5\n      dup3\n      mstore\n      0x20\n      dup4\n      add\n      0x20\n      dup6\n      add\n      keccak256\n      dup2\n      dup4\n      mstore\n      dup1\n      swap6\n      pop\n      pop\n      pop\n      pop\n      pop\n      pop\n      0x00\n      swap2\n      pop\n      sload\n      swap1\n      0x0100\n      exp\n      swap1\n      div\n      0xff\n      and\n      dup2\n      jump\t// out\n        /* \"contracts/managedelection.sol\":822:1035  function addCandidate(string memory _name) public {\r... */\n    tag_32:\n        /* \"contracts/managedelection.sol\":883:897  candidateCount */\n      0x01\n      0x00\n        /* \"contracts/managedelection.sol\":883:899  candidateCount++ */\n      dup2\n      sload\n      dup1\n      swap3\n      swap2\n      swap1\n      tag_71\n      swap1\n      tag_72\n      jump\t// in\n    tag_71:\n      swap2\n      swap1\n      pop\n      sstore\n      pop\n        /* \"contracts/managedelection.sol\":939:974  Candidate(candidateCount, _name, 0) */\n      mload(0x40)\n      dup1\n      0x60\n      add\n      0x40\n      mstore\n      dup1\n        /* \"contracts/managedelection.sol\":949:963  candidateCount */\n      sload(0x01)\n        /* \"contracts/managedelection.sol\":939:974  Candidate(candidateCount, _name, 0) */\n      dup2\n      mstore\n      0x20\n      add\n        /* \"contracts/managedelection.sol\":965:970  _name */\n      dup3\n        /* \"contracts/managedelection.sol\":939:974  Candidate(candidateCount, _name, 0) */\n      dup2\n      mstore\n      0x20\n      add\n        /* \"contracts/managedelection.sol\":972:973  0 */\n      0x00\n        /* \"contracts/managedelection.sol\":939:974  Candidate(candidateCount, _name, 0) */\n      dup2\n      mstore\n      pop\n        /* \"contracts/managedelection.sol\":910:920  candidates */\n      0x00\n        /* \"contracts/managedelection.sol\":910:936  candidates[candidateCount] */\n      dup1\n        /* \"contracts/managedelection.sol\":921:935  candidateCount */\n      sload(0x01)\n        /* \"contracts/managedelection.sol\":910:936  candidates[candidateCount] */\n      dup2\n      mstore\n      0x20\n      add\n      swap1\n      dup2\n      mstore\n      0x20\n      add\n      0x00\n      keccak256\n        /* \"contracts/managedelection.sol\":910:974  candidates[candidateCount] = Candidate(candidateCount, _name, 0) */\n      0x00\n      dup3\n      add\n      mload\n      dup2\n      0x00\n      add\n      sstore\n      0x20\n      dup3\n      add\n      mload\n      dup2\n      0x01\n      add\n      swap1\n      dup1\n      mload\n      swap1\n      0x20\n      add\n      swap1\n      tag_73\n      swap3\n      swap2\n      swap1\n      tag_74\n      jump\t// in\n    tag_73:\n      pop\n      0x40\n      dup3\n      add\n      mload\n      dup2\n      0x02\n      add\n      sstore\n      swap1\n      pop\n      pop\n        /* \"contracts/managedelection.sol\":990:1027  CandidateAdded(candidateCount, _name) */\n      0xe83b2a43e7e82d975c8a0a6d2f045153c869e111136a34d1889ab7b598e396a3\n        /* \"contracts/managedelection.sol\":1005:1019  candidateCount */\n      sload(0x01)\n        /* \"contracts/managedelection.sol\":1021:1026  _name */\n      dup3\n        /* \"contracts/managedelection.sol\":990:1027  CandidateAdded(candidateCount, _name) */\n      mload(0x40)\n      tag_75\n      swap3\n      swap2\n      swap1\n      tag_76\n      jump\t// in\n    tag_75:\n      mload(0x40)\n      dup1\n      swap2\n      sub\n      swap1\n      log1\n        /* \"contracts/managedelection.sol\":822:1035  function addCandidate(string memory _name) public {\r... */\n      pop\n      jump\t// out\n        /* \"contracts/managedelection.sol\":573:624  mapping(string => bool) public registeredEnrollment */\n    tag_35:\n      0x05\n      dup2\n      dup1\n      mload\n      0x20\n      dup2\n      add\n      dup3\n      add\n      dup1\n      mload\n      dup5\n      dup3\n      mstore\n      0x20\n      dup4\n      add\n      0x20\n      dup6\n      add\n      keccak256\n      dup2\n      dup4\n      mstore\n      dup1\n      swap6\n      pop\n      pop\n      pop\n      pop\n      pop\n      pop\n      0x00\n      swap2\n      pop\n      sload\n      swap1\n      0x0100\n      exp\n      swap1\n      div\n      0xff\n      and\n      dup2\n      jump\t// out\n        /* \"contracts/managedelection.sol\":403:443  mapping(bytes32 => bool) public usedFace */\n    tag_40:\n      mstore(0x20, 0x03)\n      dup1\n      0x00\n      mstore\n      keccak256(0x00, 0x40)\n      0x00\n      swap2\n      pop\n      sload\n      swap1\n      0x0100\n      exp\n      swap1\n      div\n      0xff\n      and\n      dup2\n      jump\t// out\n        /* \"contracts/managedelection.sol\":1440:1935  function vote(string memory enrollment, bytes32 faceHash, uint candidateId) public {\r... */\n    tag_45:\n        /* \"contracts/managedelection.sol\":1543:1551  hasVoted */\n      0x02\n        /* \"contracts/managedelection.sol\":1552:1562  enrollment */\n      dup4\n        /* \"contracts/managedelection.sol\":1543:1563  hasVoted[enrollment] */\n      mload(0x40)\n      tag_78\n      swap2\n      swap1\n      tag_79\n      jump\t// in\n    tag_78:\n      swap1\n      dup2\n      mstore\n      0x20\n      add\n      mload(0x40)\n      dup1\n      swap2\n      sub\n      swap1\n      keccak256\n      0x00\n      swap1\n      sload\n      swap1\n      0x0100\n      exp\n      swap1\n      div\n      0xff\n      and\n        /* \"contracts/managedelection.sol\":1542:1563  !hasVoted[enrollment] */\n      iszero\n        /* \"contracts/managedelection.sol\":1534:1598  require(!hasVoted[enrollment], \"You already voted (enrollment)\") */\n      tag_80\n      jumpi\n      mload(0x40)\n      0x08c379a000000000000000000000000000000000000000000000000000000000\n      dup2\n      mstore\n      0x04\n      add\n      tag_81\n      swap1\n      tag_82\n      jump\t// in\n    tag_81:\n      mload(0x40)\n      dup1\n      swap2\n      sub\n      swap1\n      revert\n    tag_80:\n        /* \"contracts/managedelection.sol\":1618:1626  usedFace */\n      0x03\n        /* \"contracts/managedelection.sol\":1618:1636  usedFace[faceHash] */\n      0x00\n        /* \"contracts/managedelection.sol\":1627:1635  faceHash */\n      dup4\n        /* \"contracts/managedelection.sol\":1618:1636  usedFace[faceHash] */\n      dup2\n      mstore\n      0x20\n      add\n      swap1\n      dup2\n      mstore\n      0x20\n      add\n      0x00\n      keccak256\n      0x00\n      swap1\n      sload\n      swap1\n      0x0100\n      exp\n      swap1\n      div\n      0xff\n      and\n        /* \"contracts/managedelection.sol\":1617:1636  !usedFace[faceHash] */\n      iszero\n        /* \"contracts/managedelection.sol\":1609:1658  require(!usedFace[faceHash], \"Face already used\") */\n      tag_83\n      jumpi\n      mload(0x40)\n      0x08c379a000000000000000000000000000000000000000000000000000000000\n      dup2\n      mstore\n      0x04\n      add\n      tag_84\n      swap1\n      tag_85\n      jump\t// in\n    tag_84:\n      mload(0x40)\n      dup1\n      swap2\n      sub\n      swap1\n      revert\n    tag_83:\n        /* \"contracts/managedelection.sol\":1691:1692  0 */\n      0x00\n        /* \"contracts/managedelection.sol\":1677:1688  candidateId */\n      dup2\n        /* \"contracts/managedelection.sol\":1677:1692  candidateId > 0 */\n      gt\n        /* \"contracts/managedelection.sol\":1677:1725  candidateId > 0 && candidateId <= candidateCount */\n      dup1\n      iszero\n      tag_86\n      jumpi\n      pop\n        /* \"contracts/managedelection.sol\":1711:1725  candidateCount */\n      sload(0x01)\n        /* \"contracts/managedelection.sol\":1696:1707  candidateId */\n      dup2\n        /* \"contracts/managedelection.sol\":1696:1725  candidateId <= candidateCount */\n      gt\n      iszero\n        /* \"contracts/managedelection.sol\":1677:1725  candidateId > 0 && candidateId <= candidateCount */\n    tag_86:\n        /* \"contracts/managedelection.sol\":1669:1747  require(candidateId > 0 && candidateId <= candidateCount, \"Invalid candidate\") */\n      tag_87\n      jumpi\n      mload(0x40)\n      0x08c379a000000000000000000000000000000000000000000000000000000000\n      dup2\n      mstore\n      0x04\n      add\n      tag_88\n      swap1\n      tag_89\n      jump\t// in\n    tag_88:\n      mload(0x40)\n      dup1\n      swap2\n      sub\n      swap1\n      revert\n    tag_87:\n        /* \"contracts/managedelection.sol\":1760:1770  candidates */\n      0x00\n        /* \"contracts/managedelection.sol\":1760:1783  candidates[candidateId] */\n      dup1\n        /* \"contracts/managedelection.sol\":1771:1782  candidateId */\n      dup3\n        /* \"contracts/managedelection.sol\":1760:1783  candidates[candidateId] */\n      dup2\n      mstore\n      0x20\n      add\n      swap1\n      dup2\n      mstore\n      0x20\n      add\n      0x00\n      keccak256\n        /* \"contracts/managedelection.sol\":1760:1793  candidates[candidateId].voteCount */\n      0x02\n      add\n      0x00\n        /* \"contracts/managedelection.sol\":1760:1795  candidates[candidateId].voteCount++ */\n      dup2\n      sload\n      dup1\n      swap3\n      swap2\n      swap1\n      tag_90\n      swap1\n      tag_72\n      jump\t// in\n    tag_90:\n      swap2\n      swap1\n      pop\n      sstore\n      pop\n        /* \"contracts/managedelection.sol\":1829:1833  true */\n      0x01\n        /* \"contracts/managedelection.sol\":1806:1814  hasVoted */\n      0x02\n        /* \"contracts/managedelection.sol\":1815:1825  enrollment */\n      dup5\n        /* \"contracts/managedelection.sol\":1806:1826  hasVoted[enrollment] */\n      mload(0x40)\n      tag_91\n      swap2\n      swap1\n      tag_79\n      jump\t// in\n    tag_91:\n      swap1\n      dup2\n      mstore\n      0x20\n      add\n      mload(0x40)\n      dup1\n      swap2\n      sub\n      swap1\n      keccak256\n      0x00\n        /* \"contracts/managedelection.sol\":1806:1833  hasVoted[enrollment] = true */\n      0x0100\n      exp\n      dup2\n      sload\n      dup2\n      0xff\n      mul\n      not\n      and\n      swap1\n      dup4\n      iszero\n      iszero\n      mul\n      or\n      swap1\n      sstore\n      pop\n        /* \"contracts/managedelection.sol\":1865:1869  true */\n      0x01\n        /* \"contracts/managedelection.sol\":1844:1852  usedFace */\n      0x03\n        /* \"contracts/managedelection.sol\":1844:1862  usedFace[faceHash] */\n      0x00\n        /* \"contracts/managedelection.sol\":1853:1861  faceHash */\n      dup5\n        /* \"contracts/managedelection.sol\":1844:1862  usedFace[faceHash] */\n      dup2\n      mstore\n      0x20\n      add\n      swap1\n      dup2\n      mstore\n      0x20\n      add\n      0x00\n      keccak256\n      0x00\n        /* \"contracts/managedelection.sol\":1844:1869  usedFace[faceHash] = true */\n      0x0100\n      exp\n      dup2\n      sload\n      dup2\n      0xff\n      mul\n      not\n      and\n      swap1\n      dup4\n      iszero\n      iszero\n      mul\n      or\n      swap1\n      sstore\n      pop\n        /* \"contracts/managedelection.sol\":1887:1927  Voted(enrollment, faceHash, candidateId) */\n      0x6f53811441712cd87b770c17775ff89ef545dfdbea8b7d659c8e211903bc31c9\n        /* \"contracts/managedelection.sol\":1893:1903  enrollment */\n      dup4\n        /* \"contracts/managedelection.sol\":1905:1913  faceHash */\n      dup4\n        /* \"contracts/managedelection.sol\":1915:1926  candidateId */\n      dup4\n        /* \"contracts/managedelection.sol\":1887:1927  Voted(enrollment, faceHash, candidateId) */\n      mload(0x40)\n      tag_92\n      swap4\n      swap3\n      swap2\n      swap1\n      tag_93\n      jump\t// in\n    tag_92:\n      mload(0x40)\n      dup1\n      swap2\n      sub\n      swap1\n      log1\n        /* \"contracts/managedelection.sol\":1440:1935  function vote(string memory enrollment, bytes32 faceHash, uint candidateId) public {\r... */\n      pop\n      pop\n      pop\n      jump\t// out\n        /* \"contracts/managedelection.sol\":1043:1432  function registerVoter(string memory enrollment, bytes32 faceHash) public {\r... */\n    tag_49:\n        /* \"contracts/managedelection.sol\":1137:1151  registeredFace */\n      0x04\n        /* \"contracts/managedelection.sol\":1137:1161  registeredFace[faceHash] */\n      0x00\n        /* \"contracts/managedelection.sol\":1152:1160  faceHash */\n      dup3\n        /* \"contracts/managedelection.sol\":1137:1161  registeredFace[faceHash] */\n      dup2\n      mstore\n      0x20\n      add\n      swap1\n      dup2\n      mstore\n      0x20\n      add\n      0x00\n      keccak256\n      0x00\n      swap1\n      sload\n      swap1\n      0x0100\n      exp\n      swap1\n      div\n      0xff\n      and\n        /* \"contracts/managedelection.sol\":1136:1161  !registeredFace[faceHash] */\n      iszero\n        /* \"contracts/managedelection.sol\":1128:1189  require(!registeredFace[faceHash], \"Face already registered\") */\n      tag_95\n      jumpi\n      mload(0x40)\n      0x08c379a000000000000000000000000000000000000000000000000000000000\n      dup2\n      mstore\n      0x04\n      add\n      tag_96\n      swap1\n      tag_97\n      jump\t// in\n    tag_96:\n      mload(0x40)\n      dup1\n      swap2\n      sub\n      swap1\n      revert\n    tag_95:\n        /* \"contracts/managedelection.sol\":1209:1229  registeredEnrollment */\n      0x05\n        /* \"contracts/managedelection.sol\":1230:1240  enrollment */\n      dup3\n        /* \"contracts/managedelection.sol\":1209:1241  registeredEnrollment[enrollment] */\n      mload(0x40)\n      tag_98\n      swap2\n      swap1\n      tag_79\n      jump\t// in\n    tag_98:\n      swap1\n      dup2\n      mstore\n      0x20\n      add\n      mload(0x40)\n      dup1\n      swap2\n      sub\n      swap1\n      keccak256\n      0x00\n      swap1\n      sload\n      swap1\n      0x0100\n      exp\n      swap1\n      div\n      0xff\n      and\n        /* \"contracts/managedelection.sol\":1208:1241  !registeredEnrollment[enrollment] */\n      iszero\n        /* \"contracts/managedelection.sol\":1200:1275  require(!registeredEnrollment[enrollment], \"Enrollment already registered\") */\n      tag_99\n      jumpi\n      mload(0x40)\n      0x08c379a000000000000000000000000000000000000000000000000000000000\n      dup2\n      mstore\n      0x04\n      add\n      tag_100\n      swap1\n      tag_101\n      jump\t// in\n    tag_100:\n      mload(0x40)\n      dup1\n      swap2\n      sub\n      swap1\n      revert\n    tag_99:\n        /* \"contracts/managedelection.sol\":1315:1319  true */\n      0x01\n        /* \"contracts/managedelection.sol\":1288:1302  registeredFace */\n      0x04\n        /* \"contracts/managedelection.sol\":1288:1312  registeredFace[faceHash] */\n      0x00\n        /* \"contracts/managedelection.sol\":1303:1311  faceHash */\n      dup4\n        /* \"contracts/managedelection.sol\":1288:1312  registeredFace[faceHash] */\n      dup2\n      mstore\n      0x20\n      add\n      swap1\n      dup2\n      mstore\n      0x20\n      add\n      0x00\n      keccak256\n      0x00\n        /* \"contracts/managedelection.sol\":1288:1319  registeredFace[faceHash] = true */\n      0x0100\n      exp\n      dup2\n      sload\n      dup2\n      0xff\n      mul\n      not\n      and\n      swap1\n      dup4\n      iszero\n      iszero\n      mul\n      or\n      swap1\n      sstore\n      pop\n        /* \"contracts/managedelection.sol\":1365:1369  true */\n      0x01\n        /* \"contracts/managedelection.sol\":1330:1350  registeredEnrollment */\n      0x05\n        /* \"contracts/managedelection.sol\":1351:1361  enrollment */\n      dup4\n        /* \"contracts/managedelection.sol\":1330:1362  registeredEnrollment[enrollment] */\n      mload(0x40)\n      tag_102\n      swap2\n      swap1\n      tag_79\n      jump\t// in\n    tag_102:\n      swap1\n      dup2\n      mstore\n      0x20\n      add\n      mload(0x40)\n      dup1\n      swap2\n      sub\n      swap1\n      keccak256\n      0x00\n        /* \"contracts/managedelection.sol\":1330:1369  registeredEnrollment[enrollment] = true */\n      0x0100\n      exp\n      dup2\n      sload\n      dup2\n      0xff\n      mul\n      not\n      and\n      swap1\n      dup4\n      iszero\n      iszero\n      mul\n      or\n      swap1\n      sstore\n      pop\n        /* \"contracts/managedelection.sol\":1387:1424  VoterRegistered(enrollment, faceHash) */\n      0x90f4f8c28c2093cea4c155471c57dd544cd9b0b1a4e234db28e7d7bc48bf7541\n        /* \"contracts/managedelection.sol\":1403:1413  enrollment */\n      dup3\n        /* \"contracts/managedelection.sol\":1415:1423  faceHash */\n      dup3\n        /* \"contracts/managedelection.sol\":1387:1424  VoterRegistered(enrollment, faceHash) */\n      mload(0x40)\n      tag_103\n      swap3\n      swap2\n      swap1\n      tag_104\n      jump\t// in\n    tag_103:\n      mload(0x40)\n      dup1\n      swap2\n      sub\n      swap1\n      log1\n        /* \"contracts/managedelection.sol\":1043:1432  function registerVoter(string memory enrollment, bytes32 faceHash) public {\r... */\n      pop\n      pop\n      jump\t// out\n        /* \"contracts/managedelection.sol\":240:266  uint public candidateCount */\n    tag_51:\n      sload(0x01)\n      dup2\n      jump\t// out\n        /* \"contracts/managedelection.sol\":484:530  mapping(bytes32 => bool) public registeredFace */\n    tag_56:\n      mstore(0x20, 0x04)\n      dup1\n      0x00\n      mstore\n      keccak256(0x00, 0x40)\n      0x00\n      swap2\n      pop\n      sload\n      swap1\n      0x0100\n      exp\n      swap1\n      div\n      0xff\n      and\n      dup2\n      jump\t// out\n    tag_74:\n      dup3\n      dup1\n      sload\n      tag_105\n      swap1\n      tag_59\n      jump\t// in\n    tag_105:\n      swap1\n      0x00\n      mstore\n      keccak256(0x00, 0x20)\n      swap1\n      0x1f\n      add\n      0x20\n      swap1\n      div\n      dup2\n      add\n      swap3\n      dup3\n      tag_107\n      jumpi\n      0x00\n      dup6\n      sstore\n      jump(tag_106)\n    tag_107:\n      dup3\n      0x1f\n      lt\n      tag_108\n      jumpi\n      dup1\n      mload\n      not(0xff)\n      and\n      dup4\n      dup1\n      add\n      or\n      dup6\n      sstore\n      jump(tag_106)\n    tag_108:\n      dup3\n      dup1\n      add\n      0x01\n      add\n      dup6\n      sstore\n      dup3\n      iszero\n      tag_106\n      jumpi\n      swap2\n      dup3\n      add\n    tag_109:\n      dup3\n      dup2\n      gt\n      iszero\n      tag_110\n      jumpi\n      dup3\n      mload\n      dup3\n      sstore\n      swap2\n      0x20\n      add\n      swap2\n      swap1\n      0x01\n      add\n      swap1\n      jump(tag_109)\n    tag_110:\n    tag_106:\n      pop\n      swap1\n      pop\n      tag_111\n      swap2\n      swap1\n      tag_112\n      jump\t// in\n    tag_111:\n      pop\n      swap1\n      jump\t// out\n    tag_112:\n    tag_113:\n      dup1\n      dup3\n      gt\n      iszero\n      tag_114\n      jumpi\n      0x00\n      dup2\n      0x00\n      swap1\n      sstore\n      pop\n      0x01\n      add\n      jump(tag_113)\n    tag_114:\n      pop\n      swap1\n      jump\t// out\n        /* \"#utility.yul\":7:351   */\n    tag_116:\n      0x00\n        /* \"#utility.yul\":110:175   */\n      tag_118\n        /* \"#utility.yul\":125:174   */\n      tag_119\n        /* \"#utility.yul\":167:173   */\n      dup5\n        /* \"#utility.yul\":125:174   */\n      tag_120\n      jump\t// in\n    tag_119:\n        /* \"#utility.yul\":110:175   */\n      tag_121\n      jump\t// in\n    tag_118:\n        /* \"#utility.yul\":101:175   */\n      swap1\n      pop\n        /* \"#utility.yul\":198:204   */\n      dup3\n        /* \"#utility.yul\":191:196   */\n      dup2\n        /* \"#utility.yul\":184:205   */\n      mstore\n        /* \"#utility.yul\":236:240   */\n      0x20\n        /* \"#utility.yul\":229:234   */\n      dup2\n        /* \"#utility.yul\":225:241   */\n      add\n        /* \"#utility.yul\":274:277   */\n      dup5\n        /* \"#utility.yul\":265:271   */\n      dup5\n        /* \"#utility.yul\":260:263   */\n      dup5\n        /* \"#utility.yul\":256:272   */\n      add\n        /* \"#utility.yul\":253:278   */\n      gt\n        /* \"#utility.yul\":250:252   */\n      iszero\n      tag_122\n      jumpi\n        /* \"#utility.yul\":291:292   */\n      0x00\n        /* \"#utility.yul\":288:289   */\n      dup1\n        /* \"#utility.yul\":281:293   */\n      revert\n        /* \"#utility.yul\":250:252   */\n    tag_122:\n        /* \"#utility.yul\":304:345   */\n      tag_123\n        /* \"#utility.yul\":338:344   */\n      dup5\n        /* \"#utility.yul\":333:336   */\n      dup3\n        /* \"#utility.yul\":328:331   */\n      dup6\n        /* \"#utility.yul\":304:345   */\n      tag_124\n      jump\t// in\n    tag_123:\n        /* \"#utility.yul\":91:351   */\n      pop\n      swap4\n      swap3\n      pop\n      pop\n      pop\n      jump\t// out\n        /* \"#utility.yul\":357:496   */\n    tag_125:\n      0x00\n        /* \"#utility.yul\":441:447   */\n      dup2\n        /* \"#utility.yul\":428:448   */\n      calldataload\n        /* \"#utility.yul\":419:448   */\n      swap1\n      pop\n        /* \"#utility.yul\":457:490   */\n      tag_127\n        /* \"#utility.yul\":484:489   */\n      dup2\n        /* \"#utility.yul\":457:490   */\n      tag_128\n      jump\t// in\n    tag_127:\n        /* \"#utility.yul\":409:496   */\n      swap3\n      swap2\n      pop\n      pop\n      jump\t// out\n        /* \"#utility.yul\":516:789   */\n    tag_129:\n      0x00\n        /* \"#utility.yul\":621:624   */\n      dup3\n        /* \"#utility.yul\":614:618   */\n      0x1f\n        /* \"#utility.yul\":606:612   */\n      dup4\n        /* \"#utility.yul\":602:619   */\n      add\n        /* \"#utility.yul\":598:625   */\n      slt\n        /* \"#utility.yul\":588:590   */\n      tag_131\n      jumpi\n        /* \"#utility.yul\":639:640   */\n      0x00\n        /* \"#utility.yul\":636:637   */\n      dup1\n        /* \"#utility.yul\":629:641   */\n      revert\n        /* \"#utility.yul\":588:590   */\n    tag_131:\n        /* \"#utility.yul\":679:685   */\n      dup2\n        /* \"#utility.yul\":666:686   */\n      calldataload\n        /* \"#utility.yul\":704:783   */\n      tag_132\n        /* \"#utility.yul\":779:782   */\n      dup5\n        /* \"#utility.yul\":771:777   */\n      dup3\n        /* \"#utility.yul\":764:768   */\n      0x20\n        /* \"#utility.yul\":756:762   */\n      dup7\n        /* \"#utility.yul\":752:769   */\n      add\n        /* \"#utility.yul\":704:783   */\n      tag_116\n      jump\t// in\n    tag_132:\n        /* \"#utility.yul\":695:783   */\n      swap2\n      pop\n        /* \"#utility.yul\":578:789   */\n      pop\n      swap3\n      swap2\n      pop\n      pop\n      jump\t// out\n        /* \"#utility.yul\":795:934   */\n    tag_133:\n      0x00\n        /* \"#utility.yul\":879:885   */\n      dup2\n        /* \"#utility.yul\":866:886   */\n      calldataload\n        /* \"#utility.yul\":857:886   */\n      swap1\n      pop\n        /* \"#utility.yul\":895:928   */\n      tag_135\n        /* \"#utility.yul\":922:927   */\n      dup2\n        /* \"#utility.yul\":895:928   */\n      tag_136\n      jump\t// in\n    tag_135:\n        /* \"#utility.yul\":847:934   */\n      swap3\n      swap2\n      pop\n      pop\n      jump\t// out\n        /* \"#utility.yul\":940:1202   */\n    tag_39:\n      0x00\n        /* \"#utility.yul\":1048:1050   */\n      0x20\n        /* \"#utility.yul\":1036:1045   */\n      dup3\n        /* \"#utility.yul\":1027:1034   */\n      dup5\n        /* \"#utility.yul\":1023:1046   */\n      sub\n        /* \"#utility.yul\":1019:1051   */\n      slt\n        /* \"#utility.yul\":1016:1018   */\n      iszero\n      tag_138\n      jumpi\n        /* \"#utility.yul\":1064:1065   */\n      0x00\n        /* \"#utility.yul\":1061:1062   */\n      dup1\n        /* \"#utility.yul\":1054:1066   */\n      revert\n        /* \"#utility.yul\":1016:1018   */\n    tag_138:\n        /* \"#utility.yul\":1107:1108   */\n      0x00\n        /* \"#utility.yul\":1132:1185   */\n      tag_139\n        /* \"#utility.yul\":1177:1184   */\n      dup5\n        /* \"#utility.yul\":1168:1174   */\n      dup3\n        /* \"#utility.yul\":1157:1166   */\n      dup6\n        /* \"#utility.yul\":1153:1175   */\n      add\n        /* \"#utility.yul\":1132:1185   */\n      tag_125\n      jump\t// in\n    tag_139:\n        /* \"#utility.yul\":1122:1185   */\n      swap2\n      pop\n        /* \"#utility.yul\":1078:1195   */\n      pop\n        /* \"#utility.yul\":1006:1202   */\n      swap3\n      swap2\n      pop\n      pop\n      jump\t// out\n        /* \"#utility.yul\":1208:1583   */\n    tag_26:\n      0x00\n        /* \"#utility.yul\":1326:1328   */\n      0x20\n        /* \"#utility.yul\":1314:1323   */\n      dup3\n        /* \"#utility.yul\":1305:1312   */\n      dup5\n        /* \"#utility.yul\":1301:1324   */\n      sub\n        /* \"#utility.yul\":1297:1329   */\n      slt\n        /* \"#utility.yul\":1294:1296   */\n      iszero\n      tag_141\n      jumpi\n        /* \"#utility.yul\":1342:1343   */\n      0x00\n        /* \"#utility.yul\":1339:1340   */\n      dup1\n        /* \"#utility.yul\":1332:1344   */\n      revert\n        /* \"#utility.yul\":1294:1296   */\n    tag_141:\n        /* \"#utility.yul\":1413:1414   */\n      0x00\n        /* \"#utility.yul\":1402:1411   */\n      dup3\n        /* \"#utility.yul\":1398:1415   */\n      add\n        /* \"#utility.yul\":1385:1416   */\n      calldataload\n        /* \"#utility.yul\":1443:1461   */\n      0xffffffffffffffff\n        /* \"#utility.yul\":1435:1441   */\n      dup2\n        /* \"#utility.yul\":1432:1462   */\n      gt\n        /* \"#utility.yul\":1429:1431   */\n      iszero\n      tag_142\n      jumpi\n        /* \"#utility.yul\":1475:1476   */\n      0x00\n        /* \"#utility.yul\":1472:1473   */\n      dup1\n        /* \"#utility.yul\":1465:1477   */\n      revert\n        /* \"#utility.yul\":1429:1431   */\n    tag_142:\n        /* \"#utility.yul\":1503:1566   */\n      tag_143\n        /* \"#utility.yul\":1558:1565   */\n      dup5\n        /* \"#utility.yul\":1549:1555   */\n      dup3\n        /* \"#utility.yul\":1538:1547   */\n      dup6\n        /* \"#utility.yul\":1534:1556   */\n      add\n        /* \"#utility.yul\":1503:1566   */\n      tag_129\n      jump\t// in\n    tag_143:\n        /* \"#utility.yul\":1493:1566   */\n      swap2\n      pop\n        /* \"#utility.yul\":1356:1576   */\n      pop\n        /* \"#utility.yul\":1284:1583   */\n      swap3\n      swap2\n      pop\n      pop\n      jump\t// out\n        /* \"#utility.yul\":1589:2109   */\n    tag_48:\n      0x00\n      dup1\n        /* \"#utility.yul\":1724:1726   */\n      0x40\n        /* \"#utility.yul\":1712:1721   */\n      dup4\n        /* \"#utility.yul\":1703:1710   */\n      dup6\n        /* \"#utility.yul\":1699:1722   */\n      sub\n        /* \"#utility.yul\":1695:1727   */\n      slt\n        /* \"#utility.yul\":1692:1694   */\n      iszero\n      tag_145\n      jumpi\n        /* \"#utility.yul\":1740:1741   */\n      0x00\n        /* \"#utility.yul\":1737:1738   */\n      dup1\n        /* \"#utility.yul\":1730:1742   */\n      revert\n        /* \"#utility.yul\":1692:1694   */\n    tag_145:\n        /* \"#utility.yul\":1811:1812   */\n      0x00\n        /* \"#utility.yul\":1800:1809   */\n      dup4\n        /* \"#utility.yul\":1796:1813   */\n      add\n        /* \"#utility.yul\":1783:1814   */\n      calldataload\n        /* \"#utility.yul\":1841:1859   */\n      0xffffffffffffffff\n        /* \"#utility.yul\":1833:1839   */\n      dup2\n        /* \"#utility.yul\":1830:1860   */\n      gt\n        /* \"#utility.yul\":1827:1829   */\n      iszero\n      tag_146\n      jumpi\n        /* \"#utility.yul\":1873:1874   */\n      0x00\n        /* \"#utility.yul\":1870:1871   */\n      dup1\n        /* \"#utility.yul\":1863:1875   */\n      revert\n        /* \"#utility.yul\":1827:1829   */\n    tag_146:\n        /* \"#utility.yul\":1901:1964   */\n      tag_147\n        /* \"#utility.yul\":1956:1963   */\n      dup6\n        /* \"#utility.yul\":1947:1953   */\n      dup3\n        /* \"#utility.yul\":1936:1945   */\n      dup7\n        /* \"#utility.yul\":1932:1954   */\n      add\n        /* \"#utility.yul\":1901:1964   */\n      tag_129\n      jump\t// in\n    tag_147:\n        /* \"#utility.yul\":1891:1964   */\n      swap3\n      pop\n        /* \"#utility.yul\":1754:1974   */\n      pop\n        /* \"#utility.yul\":2013:2015   */\n      0x20\n        /* \"#utility.yul\":2039:2092   */\n      tag_148\n        /* \"#utility.yul\":2084:2091   */\n      dup6\n        /* \"#utility.yul\":2075:2081   */\n      dup3\n        /* \"#utility.yul\":2064:2073   */\n      dup7\n        /* \"#utility.yul\":2060:2082   */\n      add\n        /* \"#utility.yul\":2039:2092   */\n      tag_125\n      jump\t// in\n    tag_148:\n        /* \"#utility.yul\":2029:2092   */\n      swap2\n      pop\n        /* \"#utility.yul\":1984:2102   */\n      pop\n        /* \"#utility.yul\":1682:2109   */\n      swap3\n      pop\n      swap3\n      swap1\n      pop\n      jump\t// out\n        /* \"#utility.yul\":2115:2780   */\n    tag_44:\n      0x00\n      dup1\n      0x00\n        /* \"#utility.yul\":2267:2269   */\n      0x60\n        /* \"#utility.yul\":2255:2264   */\n      dup5\n        /* \"#utility.yul\":2246:2253   */\n      dup7\n        /* \"#utility.yul\":2242:2265   */\n      sub\n        /* \"#utility.yul\":2238:2270   */\n      slt\n        /* \"#utility.yul\":2235:2237   */\n      iszero\n      tag_150\n      jumpi\n        /* \"#utility.yul\":2283:2284   */\n      0x00\n        /* \"#utility.yul\":2280:2281   */\n      dup1\n        /* \"#utility.yul\":2273:2285   */\n      revert\n        /* \"#utility.yul\":2235:2237   */\n    tag_150:\n        /* \"#utility.yul\":2354:2355   */\n      0x00\n        /* \"#utility.yul\":2343:2352   */\n      dup5\n        /* \"#utility.yul\":2339:2356   */\n      add\n        /* \"#utility.yul\":2326:2357   */\n      calldataload\n        /* \"#utility.yul\":2384:2402   */\n      0xffffffffffffffff\n        /* \"#utility.yul\":2376:2382   */\n      dup2\n        /* \"#utility.yul\":2373:2403   */\n      gt\n        /* \"#utility.yul\":2370:2372   */\n      iszero\n      tag_151\n      jumpi\n        /* \"#utility.yul\":2416:2417   */\n      0x00\n        /* \"#utility.yul\":2413:2414   */\n      dup1\n        /* \"#utility.yul\":2406:2418   */\n      revert\n        /* \"#utility.yul\":2370:2372   */\n    tag_151:\n        /* \"#utility.yul\":2444:2507   */\n      tag_152\n        /* \"#utility.yul\":2499:2506   */\n      dup7\n        /* \"#utility.yul\":2490:2496   */\n      dup3\n        /* \"#utility.yul\":2479:2488   */\n      dup8\n        /* \"#utility.yul\":2475:2497   */\n      add\n        /* \"#utility.yul\":2444:2507   */\n      tag_129\n      jump\t// in\n    tag_152:\n        /* \"#utility.yul\":2434:2507   */\n      swap4\n      pop\n        /* \"#utility.yul\":2297:2517   */\n      pop\n        /* \"#utility.yul\":2556:2558   */\n      0x20\n        /* \"#utility.yul\":2582:2635   */\n      tag_153\n        /* \"#utility.yul\":2627:2634   */\n      dup7\n        /* \"#utility.yul\":2618:2624   */\n      dup3\n        /* \"#utility.yul\":2607:2616   */\n      dup8\n        /* \"#utility.yul\":2603:2625   */\n      add\n        /* \"#utility.yul\":2582:2635   */\n      tag_125\n      jump\t// in\n    tag_153:\n        /* \"#utility.yul\":2572:2635   */\n      swap3\n      pop\n        /* \"#utility.yul\":2527:2645   */\n      pop\n        /* \"#utility.yul\":2684:2686   */\n      0x40\n        /* \"#utility.yul\":2710:2763   */\n      tag_154\n        /* \"#utility.yul\":2755:2762   */\n      dup7\n        /* \"#utility.yul\":2746:2752   */\n      dup3\n        /* \"#utility.yul\":2735:2744   */\n      dup8\n        /* \"#utility.yul\":2731:2753   */\n      add\n        /* \"#utility.yul\":2710:2763   */\n      tag_133\n      jump\t// in\n    tag_154:\n        /* \"#utility.yul\":2700:2763   */\n      swap2\n      pop\n        /* \"#utility.yul\":2655:2773   */\n      pop\n        /* \"#utility.yul\":2225:2780   */\n      swap3\n      pop\n      swap3\n      pop\n      swap3\n      jump\t// out\n        /* \"#utility.yul\":2786:3048   */\n    tag_16:\n      0x00\n        /* \"#utility.yul\":2894:2896   */\n      0x20\n        /* \"#utility.yul\":2882:2891   */\n      dup3\n        /* \"#utility.yul\":2873:2880   */\n      dup5\n        /* \"#utility.yul\":2869:2892   */\n      sub\n        /* \"#utility.yul\":2865:2897   */\n      slt\n        /* \"#utility.yul\":2862:2864   */\n      iszero\n      tag_156\n      jumpi\n        /* \"#utility.yul\":2910:2911   */\n      0x00\n        /* \"#utility.yul\":2907:2908   */\n      dup1\n        /* \"#utility.yul\":2900:2912   */\n      revert\n        /* \"#utility.yul\":2862:2864   */\n    tag_156:\n        /* \"#utility.yul\":2953:2954   */\n      0x00\n        /* \"#utility.yul\":2978:3031   */\n      tag_157\n        /* \"#utility.yul\":3023:3030   */\n      dup5\n        /* \"#utility.yul\":3014:3020   */\n      dup3\n        /* \"#utility.yul\":3003:3012   */\n      dup6\n        /* \"#utility.yul\":2999:3021   */\n      add\n        /* \"#utility.yul\":2978:3031   */\n      tag_133\n      jump\t// in\n    tag_157:\n        /* \"#utility.yul\":2968:3031   */\n      swap2\n      pop\n        /* \"#utility.yul\":2924:3041   */\n      pop\n        /* \"#utility.yul\":2852:3048   */\n      swap3\n      swap2\n      pop\n      pop\n      jump\t// out\n        /* \"#utility.yul\":3054:3163   */\n    tag_158:\n        /* \"#utility.yul\":3135:3156   */\n      tag_160\n        /* \"#utility.yul\":3150:3155   */\n      dup2\n        /* \"#utility.yul\":3135:3156   */\n      tag_161\n      jump\t// in\n    tag_160:\n        /* \"#utility.yul\":3130:3133   */\n      dup3\n        /* \"#utility.yul\":3123:3157   */\n      mstore\n        /* \"#utility.yul\":3113:3163   */\n      pop\n      pop\n      jump\t// out\n        /* \"#utility.yul\":3169:3287   */\n    tag_162:\n        /* \"#utility.yul\":3256:3280   */\n      tag_164\n        /* \"#utility.yul\":3274:3279   */\n      dup2\n        /* \"#utility.yul\":3256:3280   */\n      tag_165\n      jump\t// in\n    tag_164:\n        /* \"#utility.yul\":3251:3254   */\n      dup3\n        /* \"#utility.yul\":3244:3281   */\n      mstore\n        /* \"#utility.yul\":3234:3287   */\n      pop\n      pop\n      jump\t// out\n        /* \"#utility.yul\":3293:3657   */\n    tag_166:\n      0x00\n        /* \"#utility.yul\":3409:3448   */\n      tag_168\n        /* \"#utility.yul\":3442:3447   */\n      dup3\n        /* \"#utility.yul\":3409:3448   */\n      tag_169\n      jump\t// in\n    tag_168:\n        /* \"#utility.yul\":3464:3535   */\n      tag_170\n        /* \"#utility.yul\":3528:3534   */\n      dup2\n        /* \"#utility.yul\":3523:3526   */\n      dup6\n        /* \"#utility.yul\":3464:3535   */\n      tag_171\n      jump\t// in\n    tag_170:\n        /* \"#utility.yul\":3457:3535   */\n      swap4\n      pop\n        /* \"#utility.yul\":3544:3596   */\n      tag_172\n        /* \"#utility.yul\":3589:3595   */\n      dup2\n        /* \"#utility.yul\":3584:3587   */\n      dup6\n        /* \"#utility.yul\":3577:3581   */\n      0x20\n        /* \"#utility.yul\":3570:3575   */\n      dup7\n        /* \"#utility.yul\":3566:3582   */\n      add\n        /* \"#utility.yul\":3544:3596   */\n      tag_173\n      jump\t// in\n    tag_172:\n        /* \"#utility.yul\":3621:3650   */\n      tag_174\n        /* \"#utility.yul\":3643:3649   */\n      dup2\n        /* \"#utility.yul\":3621:3650   */\n      tag_175\n      jump\t// in\n    tag_174:\n        /* \"#utility.yul\":3616:3619   */\n      dup5\n        /* \"#utility.yul\":3612:3651   */\n      add\n        /* \"#utility.yul\":3605:3651   */\n      swap2\n      pop\n        /* \"#utility.yul\":3385:3657   */\n      pop\n      swap3\n      swap2\n      pop\n      pop\n      jump\t// out\n        /* \"#utility.yul\":3663:4040   */\n    tag_176:\n      0x00\n        /* \"#utility.yul\":3797:3836   */\n      tag_178\n        /* \"#utility.yul\":3830:3835   */\n      dup3\n        /* \"#utility.yul\":3797:3836   */\n      tag_169\n      jump\t// in\n    tag_178:\n        /* \"#utility.yul\":3852:3941   */\n      tag_179\n        /* \"#utility.yul\":3934:3940   */\n      dup2\n        /* \"#utility.yul\":3929:3932   */\n      dup6\n        /* \"#utility.yul\":3852:3941   */\n      tag_180\n      jump\t// in\n    tag_179:\n        /* \"#utility.yul\":3845:3941   */\n      swap4\n      pop\n        /* \"#utility.yul\":3950:4002   */\n      tag_181\n        /* \"#utility.yul\":3995:4001   */\n      dup2\n        /* \"#utility.yul\":3990:3993   */\n      dup6\n        /* \"#utility.yul\":3983:3987   */\n      0x20\n        /* \"#utility.yul\":3976:3981   */\n      dup7\n        /* \"#utility.yul\":3972:3988   */\n      add\n        /* \"#utility.yul\":3950:4002   */\n      tag_173\n      jump\t// in\n    tag_181:\n        /* \"#utility.yul\":4027:4033   */\n      dup1\n        /* \"#utility.yul\":4022:4025   */\n      dup5\n        /* \"#utility.yul\":4018:4034   */\n      add\n        /* \"#utility.yul\":4011:4034   */\n      swap2\n      pop\n        /* \"#utility.yul\":3773:4040   */\n      pop\n      swap3\n      swap2\n      pop\n      pop\n      jump\t// out\n        /* \"#utility.yul\":4046:4361   */\n    tag_182:\n      0x00\n        /* \"#utility.yul\":4209:4276   */\n      tag_184\n        /* \"#utility.yul\":4273:4275   */\n      0x11\n        /* \"#utility.yul\":4268:4271   */\n      dup4\n        /* \"#utility.yul\":4209:4276   */\n      tag_171\n      jump\t// in\n    tag_184:\n        /* \"#utility.yul\":4202:4276   */\n      swap2\n      pop\n        /* \"#utility.yul\":4306:4325   */\n      0x496e76616c69642063616e646964617465000000000000000000000000000000\n        /* \"#utility.yul\":4302:4303   */\n      0x00\n        /* \"#utility.yul\":4297:4300   */\n      dup4\n        /* \"#utility.yul\":4293:4304   */\n      add\n        /* \"#utility.yul\":4286:4326   */\n      mstore\n        /* \"#utility.yul\":4352:4354   */\n      0x20\n        /* \"#utility.yul\":4347:4350   */\n      dup3\n        /* \"#utility.yul\":4343:4355   */\n      add\n        /* \"#utility.yul\":4336:4355   */\n      swap1\n      pop\n        /* \"#utility.yul\":4192:4361   */\n      swap2\n      swap1\n      pop\n      jump\t// out\n        /* \"#utility.yul\":4367:4682   */\n    tag_185:\n      0x00\n        /* \"#utility.yul\":4530:4597   */\n      tag_187\n        /* \"#utility.yul\":4594:4596   */\n      0x11\n        /* \"#utility.yul\":4589:4592   */\n      dup4\n        /* \"#utility.yul\":4530:4597   */\n      tag_171\n      jump\t// in\n    tag_187:\n        /* \"#utility.yul\":4523:4597   */\n      swap2\n      pop\n        /* \"#utility.yul\":4627:4646   */\n      0x4661636520616c72656164792075736564000000000000000000000000000000\n        /* \"#utility.yul\":4623:4624   */\n      0x00\n        /* \"#utility.yul\":4618:4621   */\n      dup4\n        /* \"#utility.yul\":4614:4625   */\n      add\n        /* \"#utility.yul\":4607:4647   */\n      mstore\n        /* \"#utility.yul\":4673:4675   */\n      0x20\n        /* \"#utility.yul\":4668:4671   */\n      dup3\n        /* \"#utility.yul\":4664:4676   */\n      add\n        /* \"#utility.yul\":4657:4676   */\n      swap1\n      pop\n        /* \"#utility.yul\":4513:4682   */\n      swap2\n      swap1\n      pop\n      jump\t// out\n        /* \"#utility.yul\":4688:5016   */\n    tag_188:\n      0x00\n        /* \"#utility.yul\":4851:4918   */\n      tag_190\n        /* \"#utility.yul\":4915:4917   */\n      0x1e\n        /* \"#utility.yul\":4910:4913   */\n      dup4\n        /* \"#utility.yul\":4851:4918   */\n      tag_171\n      jump\t// in\n    tag_190:\n        /* \"#utility.yul\":4844:4918   */\n      swap2\n      pop\n        /* \"#utility.yul\":4948:4980   */\n      0x596f7520616c726561647920766f7465642028656e726f6c6c6d656e74290000\n        /* \"#utility.yul\":4944:4945   */\n      0x00\n        /* \"#utility.yul\":4939:4942   */\n      dup4\n        /* \"#utility.yul\":4935:4946   */\n      add\n        /* \"#utility.yul\":4928:4981   */\n      mstore\n        /* \"#utility.yul\":5007:5009   */\n      0x20\n        /* \"#utility.yul\":5002:5005   */\n      dup3\n        /* \"#utility.yul\":4998:5010   */\n      add\n        /* \"#utility.yul\":4991:5010   */\n      swap1\n      pop\n        /* \"#utility.yul\":4834:5016   */\n      swap2\n      swap1\n      pop\n      jump\t// out\n        /* \"#utility.yul\":5022:5343   */\n    tag_191:\n      0x00\n        /* \"#utility.yul\":5185:5252   */\n      tag_193\n        /* \"#utility.yul\":5249:5251   */\n      0x17\n        /* \"#utility.yul\":5244:5247   */\n      dup4\n        /* \"#utility.yul\":5185:5252   */\n      tag_171\n      jump\t// in\n    tag_193:\n        /* \"#utility.yul\":5178:5252   */\n      swap2\n      pop\n        /* \"#utility.yul\":5282:5307   */\n      0x4661636520616c72656164792072656769737465726564000000000000000000\n        /* \"#utility.yul\":5278:5279   */\n      0x00\n        /* \"#utility.yul\":5273:5276   */\n      dup4\n        /* \"#utility.yul\":5269:5280   */\n      add\n        /* \"#utility.yul\":5262:5308   */\n      mstore\n        /* \"#utility.yul\":5334:5336   */\n      0x20\n        /* \"#utility.yul\":5329:5332   */\n      dup3\n        /* \"#utility.yul\":5325:5337   */\n      add\n        /* \"#utility.yul\":5318:5337   */\n      swap1\n      pop\n        /* \"#utility.yul\":5168:5343   */\n      swap2\n      swap1\n      pop\n      jump\t// out\n        /* \"#utility.yul\":5349:5676   */\n    tag_194:\n      0x00\n        /* \"#utility.yul\":5512:5579   */\n      tag_196\n        /* \"#utility.yul\":5576:5578   */\n      0x1d\n        /* \"#utility.yul\":5571:5574   */\n      dup4\n        /* \"#utility.yul\":5512:5579   */\n      tag_171\n      jump\t// in\n    tag_196:\n        /* \"#utility.yul\":5505:5579   */\n      swap2\n      pop\n        /* \"#utility.yul\":5609:5640   */\n      0x456e726f6c6c6d656e7420616c72656164792072656769737465726564000000\n        /* \"#utility.yul\":5605:5606   */\n      0x00\n        /* \"#utility.yul\":5600:5603   */\n      dup4\n        /* \"#utility.yul\":5596:5607   */\n      add\n        /* \"#utility.yul\":5589:5641   */\n      mstore\n        /* \"#utility.yul\":5667:5669   */\n      0x20\n        /* \"#utility.yul\":5662:5665   */\n      dup3\n        /* \"#utility.yul\":5658:5670   */\n      add\n        /* \"#utility.yul\":5651:5670   */\n      swap1\n      pop\n        /* \"#utility.yul\":5495:5676   */\n      swap2\n      swap1\n      pop\n      jump\t// out\n        /* \"#utility.yul\":5682:5800   */\n    tag_197:\n        /* \"#utility.yul\":5769:5793   */\n      tag_199\n        /* \"#utility.yul\":5787:5792   */\n      dup2\n        /* \"#utility.yul\":5769:5793   */\n      tag_200\n      jump\t// in\n    tag_199:\n        /* \"#utility.yul\":5764:5767   */\n      dup3\n        /* \"#utility.yul\":5757:5794   */\n      mstore\n        /* \"#utility.yul\":5747:5800   */\n      pop\n      pop\n      jump\t// out\n        /* \"#utility.yul\":5806:6081   */\n    tag_79:\n      0x00\n        /* \"#utility.yul\":5960:6055   */\n      tag_202\n        /* \"#utility.yul\":6051:6054   */\n      dup3\n        /* \"#utility.yul\":6042:6048   */\n      dup5\n        /* \"#utility.yul\":5960:6055   */\n      tag_176\n      jump\t// in\n    tag_202:\n        /* \"#utility.yul\":5953:6055   */\n      swap2\n      pop\n        /* \"#utility.yul\":6072:6075   */\n      dup2\n        /* \"#utility.yul\":6065:6075   */\n      swap1\n      pop\n        /* \"#utility.yul\":5942:6081   */\n      swap3\n      swap2\n      pop\n      pop\n      jump\t// out\n        /* \"#utility.yul\":6087:6297   */\n    tag_29:\n      0x00\n        /* \"#utility.yul\":6212:6214   */\n      0x20\n        /* \"#utility.yul\":6201:6210   */\n      dup3\n        /* \"#utility.yul\":6197:6215   */\n      add\n        /* \"#utility.yul\":6189:6215   */\n      swap1\n      pop\n        /* \"#utility.yul\":6225:6290   */\n      tag_204\n        /* \"#utility.yul\":6287:6288   */\n      0x00\n        /* \"#utility.yul\":6276:6285   */\n      dup4\n        /* \"#utility.yul\":6272:6289   */\n      add\n        /* \"#utility.yul\":6263:6269   */\n      dup5\n        /* \"#utility.yul\":6225:6290   */\n      tag_158\n      jump\t// in\n    tag_204:\n        /* \"#utility.yul\":6179:6297   */\n      swap3\n      swap2\n      pop\n      pop\n      jump\t// out\n        /* \"#utility.yul\":6303:6726   */\n    tag_104:\n      0x00\n        /* \"#utility.yul\":6482:6484   */\n      0x40\n        /* \"#utility.yul\":6471:6480   */\n      dup3\n        /* \"#utility.yul\":6467:6485   */\n      add\n        /* \"#utility.yul\":6459:6485   */\n      swap1\n      pop\n        /* \"#utility.yul\":6531:6540   */\n      dup2\n        /* \"#utility.yul\":6525:6529   */\n      dup2\n        /* \"#utility.yul\":6521:6541   */\n      sub\n        /* \"#utility.yul\":6517:6518   */\n      0x00\n        /* \"#utility.yul\":6506:6515   */\n      dup4\n        /* \"#utility.yul\":6502:6519   */\n      add\n        /* \"#utility.yul\":6495:6542   */\n      mstore\n        /* \"#utility.yul\":6559:6637   */\n      tag_206\n        /* \"#utility.yul\":6632:6636   */\n      dup2\n        /* \"#utility.yul\":6623:6629   */\n      dup6\n        /* \"#utility.yul\":6559:6637   */\n      tag_166\n      jump\t// in\n    tag_206:\n        /* \"#utility.yul\":6551:6637   */\n      swap1\n      pop\n        /* \"#utility.yul\":6647:6719   */\n      tag_207\n        /* \"#utility.yul\":6715:6717   */\n      0x20\n        /* \"#utility.yul\":6704:6713   */\n      dup4\n        /* \"#utility.yul\":6700:6718   */\n      add\n        /* \"#utility.yul\":6691:6697   */\n      dup5\n        /* \"#utility.yul\":6647:6719   */\n      tag_162\n      jump\t// in\n    tag_207:\n        /* \"#utility.yul\":6449:6726   */\n      swap4\n      swap3\n      pop\n      pop\n      pop\n      jump\t// out\n        /* \"#utility.yul\":6732:7265   */\n    tag_93:\n      0x00\n        /* \"#utility.yul\":6939:6941   */\n      0x60\n        /* \"#utility.yul\":6928:6937   */\n      dup3\n        /* \"#utility.yul\":6924:6942   */\n      add\n        /* \"#utility.yul\":6916:6942   */\n      swap1\n      pop\n        /* \"#utility.yul\":6988:6997   */\n      dup2\n        /* \"#utility.yul\":6982:6986   */\n      dup2\n        /* \"#utility.yul\":6978:6998   */\n      sub\n        /* \"#utility.yul\":6974:6975   */\n      0x00\n        /* \"#utility.yul\":6963:6972   */\n      dup4\n        /* \"#utility.yul\":6959:6976   */\n      add\n        /* \"#utility.yul\":6952:6999   */\n      mstore\n        /* \"#utility.yul\":7016:7094   */\n      tag_209\n        /* \"#utility.yul\":7089:7093   */\n      dup2\n        /* \"#utility.yul\":7080:7086   */\n      dup7\n        /* \"#utility.yul\":7016:7094   */\n      tag_166\n      jump\t// in\n    tag_209:\n        /* \"#utility.yul\":7008:7094   */\n      swap1\n      pop\n        /* \"#utility.yul\":7104:7176   */\n      tag_210\n        /* \"#utility.yul\":7172:7174   */\n      0x20\n        /* \"#utility.yul\":7161:7170   */\n      dup4\n        /* \"#utility.yul\":7157:7175   */\n      add\n        /* \"#utility.yul\":7148:7154   */\n      dup6\n        /* \"#utility.yul\":7104:7176   */\n      tag_162\n      jump\t// in\n    tag_210:\n        /* \"#utility.yul\":7186:7258   */\n      tag_211\n        /* \"#utility.yul\":7254:7256   */\n      0x40\n        /* \"#utility.yul\":7243:7252   */\n      dup4\n        /* \"#utility.yul\":7239:7257   */\n      add\n        /* \"#utility.yul\":7230:7236   */\n      dup5\n        /* \"#utility.yul\":7186:7258   */\n      tag_197\n      jump\t// in\n    tag_211:\n        /* \"#utility.yul\":6906:7265   */\n      swap5\n      swap4\n      pop\n      pop\n      pop\n      pop\n      jump\t// out\n        /* \"#utility.yul\":7271:7690   */\n    tag_89:\n      0x00\n        /* \"#utility.yul\":7475:7477   */\n      0x20\n        /* \"#utility.yul\":7464:7473   */\n      dup3\n        /* \"#utility.yul\":7460:7478   */\n      add\n        /* \"#utility.yul\":7452:7478   */\n      swap1\n      pop\n        /* \"#utility.yul\":7524:7533   */\n      dup2\n        /* \"#utility.yul\":7518:7522   */\n      dup2\n        /* \"#utility.yul\":7514:7534   */\n      sub\n        /* \"#utility.yul\":7510:7511   */\n      0x00\n        /* \"#utility.yul\":7499:7508   */\n      dup4\n        /* \"#utility.yul\":7495:7512   */\n      add\n        /* \"#utility.yul\":7488:7535   */\n      mstore\n        /* \"#utility.yul\":7552:7683   */\n      tag_213\n        /* \"#utility.yul\":7678:7682   */\n      dup2\n        /* \"#utility.yul\":7552:7683   */\n      tag_182\n      jump\t// in\n    tag_213:\n        /* \"#utility.yul\":7544:7683   */\n      swap1\n      pop\n        /* \"#utility.yul\":7442:7690   */\n      swap2\n      swap1\n      pop\n      jump\t// out\n        /* \"#utility.yul\":7696:8115   */\n    tag_85:\n      0x00\n        /* \"#utility.yul\":7900:7902   */\n      0x20\n        /* \"#utility.yul\":7889:7898   */\n      dup3\n        /* \"#utility.yul\":7885:7903   */\n      add\n        /* \"#utility.yul\":7877:7903   */\n      swap1\n      pop\n        /* \"#utility.yul\":7949:7958   */\n      dup2\n        /* \"#utility.yul\":7943:7947   */\n      dup2\n        /* \"#utility.yul\":7939:7959   */\n      sub\n        /* \"#utility.yul\":7935:7936   */\n      0x00\n        /* \"#utility.yul\":7924:7933   */\n      dup4\n        /* \"#utility.yul\":7920:7937   */\n      add\n        /* \"#utility.yul\":7913:7960   */\n      mstore\n        /* \"#utility.yul\":7977:8108   */\n      tag_215\n        /* \"#utility.yul\":8103:8107   */\n      dup2\n        /* \"#utility.yul\":7977:8108   */\n      tag_185\n      jump\t// in\n    tag_215:\n        /* \"#utility.yul\":7969:8108   */\n      swap1\n      pop\n        /* \"#utility.yul\":7867:8115   */\n      swap2\n      swap1\n      pop\n      jump\t// out\n        /* \"#utility.yul\":8121:8540   */\n    tag_82:\n      0x00\n        /* \"#utility.yul\":8325:8327   */\n      0x20\n        /* \"#utility.yul\":8314:8323   */\n      dup3\n        /* \"#utility.yul\":8310:8328   */\n      add\n        /* \"#utility.yul\":8302:8328   */\n      swap1\n      pop\n        /* \"#utility.yul\":8374:8383   */\n      dup2\n        /* \"#utility.yul\":8368:8372   */\n      dup2\n        /* \"#utility.yul\":8364:8384   */\n      sub\n        /* \"#utility.yul\":8360:8361   */\n      0x00\n        /* \"#utility.yul\":8349:8358   */\n      dup4\n        /* \"#utility.yul\":8345:8362   */\n      add\n        /* \"#utility.yul\":8338:8385   */\n      mstore\n        /* \"#utility.yul\":8402:8533   */\n      tag_217\n        /* \"#utility.yul\":8528:8532   */\n      dup2\n        /* \"#utility.yul\":8402:8533   */\n      tag_188\n      jump\t// in\n    tag_217:\n        /* \"#utility.yul\":8394:8533   */\n      swap1\n      pop\n        /* \"#utility.yul\":8292:8540   */\n      swap2\n      swap1\n      pop\n      jump\t// out\n        /* \"#utility.yul\":8546:8965   */\n    tag_97:\n      0x00\n        /* \"#utility.yul\":8750:8752   */\n      0x20\n        /* \"#utility.yul\":8739:8748   */\n      dup3\n        /* \"#utility.yul\":8735:8753   */\n      add\n        /* \"#utility.yul\":8727:8753   */\n      swap1\n      pop\n        /* \"#utility.yul\":8799:8808   */\n      dup2\n        /* \"#utility.yul\":8793:8797   */\n      dup2\n        /* \"#utility.yul\":8789:8809   */\n      sub\n        /* \"#utility.yul\":8785:8786   */\n      0x00\n        /* \"#utility.yul\":8774:8783   */\n      dup4\n        /* \"#utility.yul\":8770:8787   */\n      add\n        /* \"#utility.yul\":8763:8810   */\n      mstore\n        /* \"#utility.yul\":8827:8958   */\n      tag_219\n        /* \"#utility.yul\":8953:8957   */\n      dup2\n        /* \"#utility.yul\":8827:8958   */\n      tag_191\n      jump\t// in\n    tag_219:\n        /* \"#utility.yul\":8819:8958   */\n      swap1\n      pop\n        /* \"#utility.yul\":8717:8965   */\n      swap2\n      swap1\n      pop\n      jump\t// out\n        /* \"#utility.yul\":8971:9390   */\n    tag_101:\n      0x00\n        /* \"#utility.yul\":9175:9177   */\n      0x20\n        /* \"#utility.yul\":9164:9173   */\n      dup3\n        /* \"#utility.yul\":9160:9178   */\n      add\n        /* \"#utility.yul\":9152:9178   */\n      swap1\n      pop\n        /* \"#utility.yul\":9224:9233   */\n      dup2\n        /* \"#utility.yul\":9218:9222   */\n      dup2\n        /* \"#utility.yul\":9214:9234   */\n      sub\n        /* \"#utility.yul\":9210:9211   */\n      0x00\n        /* \"#utility.yul\":9199:9208   */\n      dup4\n        /* \"#utility.yul\":9195:9212   */\n      add\n        /* \"#utility.yul\":9188:9235   */\n      mstore\n        /* \"#utility.yul\":9252:9383   */\n      tag_221\n        /* \"#utility.yul\":9378:9382   */\n      dup2\n        /* \"#utility.yul\":9252:9383   */\n      tag_194\n      jump\t// in\n    tag_221:\n        /* \"#utility.yul\":9244:9383   */\n      swap1\n      pop\n        /* \"#utility.yul\":9142:9390   */\n      swap2\n      swap1\n      pop\n      jump\t// out\n        /* \"#utility.yul\":9396:9618   */\n    tag_53:\n      0x00\n        /* \"#utility.yul\":9527:9529   */\n      0x20\n        /* \"#utility.yul\":9516:9525   */\n      dup3\n        /* \"#utility.yul\":9512:9530   */\n      add\n        /* \"#utility.yul\":9504:9530   */\n      swap1\n      pop\n        /* \"#utility.yul\":9540:9611   */\n      tag_223\n        /* \"#utility.yul\":9608:9609   */\n      0x00\n        /* \"#utility.yul\":9597:9606   */\n      dup4\n        /* \"#utility.yul\":9593:9610   */\n      add\n        /* \"#utility.yul\":9584:9590   */\n      dup5\n        /* \"#utility.yul\":9540:9611   */\n      tag_197\n      jump\t// in\n    tag_223:\n        /* \"#utility.yul\":9494:9618   */\n      swap3\n      swap2\n      pop\n      pop\n      jump\t// out\n        /* \"#utility.yul\":9624:10047   */\n    tag_76:\n      0x00\n        /* \"#utility.yul\":9803:9805   */\n      0x40\n        /* \"#utility.yul\":9792:9801   */\n      dup3\n        /* \"#utility.yul\":9788:9806   */\n      add\n        /* \"#utility.yul\":9780:9806   */\n      swap1\n      pop\n        /* \"#utility.yul\":9816:9887   */\n      tag_225\n        /* \"#utility.yul\":9884:9885   */\n      0x00\n        /* \"#utility.yul\":9873:9882   */\n      dup4\n        /* \"#utility.yul\":9869:9886   */\n      add\n        /* \"#utility.yul\":9860:9866   */\n      dup6\n        /* \"#utility.yul\":9816:9887   */\n      tag_197\n      jump\t// in\n    tag_225:\n        /* \"#utility.yul\":9934:9943   */\n      dup2\n        /* \"#utility.yul\":9928:9932   */\n      dup2\n        /* \"#utility.yul\":9924:9944   */\n      sub\n        /* \"#utility.yul\":9919:9921   */\n      0x20\n        /* \"#utility.yul\":9908:9917   */\n      dup4\n        /* \"#utility.yul\":9904:9922   */\n      add\n        /* \"#utility.yul\":9897:9945   */\n      mstore\n        /* \"#utility.yul\":9962:10040   */\n      tag_226\n        /* \"#utility.yul\":10035:10039   */\n      dup2\n        /* \"#utility.yul\":10026:10032   */\n      dup5\n        /* \"#utility.yul\":9962:10040   */\n      tag_166\n      jump\t// in\n    tag_226:\n        /* \"#utility.yul\":9954:10040   */\n      swap1\n      pop\n        /* \"#utility.yul\":9770:10047   */\n      swap4\n      swap3\n      pop\n      pop\n      pop\n      jump\t// out\n        /* \"#utility.yul\":10053:10586   */\n    tag_19:\n      0x00\n        /* \"#utility.yul\":10260:10262   */\n      0x60\n        /* \"#utility.yul\":10249:10258   */\n      dup3\n        /* \"#utility.yul\":10245:10263   */\n      add\n        /* \"#utility.yul\":10237:10263   */\n      swap1\n      pop\n        /* \"#utility.yul\":10273:10344   */\n      tag_228\n        /* \"#utility.yul\":10341:10342   */\n      0x00\n        /* \"#utility.yul\":10330:10339   */\n      dup4\n        /* \"#utility.yul\":10326:10343   */\n      add\n        /* \"#utility.yul\":10317:10323   */\n      dup7\n        /* \"#utility.yul\":10273:10344   */\n      tag_197\n      jump\t// in\n    tag_228:\n        /* \"#utility.yul\":10391:10400   */\n      dup2\n        /* \"#utility.yul\":10385:10389   */\n      dup2\n        /* \"#utility.yul\":10381:10401   */\n      sub\n        /* \"#utility.yul\":10376:10378   */\n      0x20\n        /* \"#utility.yul\":10365:10374   */\n      dup4\n        /* \"#utility.yul\":10361:10379   */\n      add\n        /* \"#utility.yul\":10354:10402   */\n      mstore\n        /* \"#utility.yul\":10419:10497   */\n      tag_229\n        /* \"#utility.yul\":10492:10496   */\n      dup2\n        /* \"#utility.yul\":10483:10489   */\n      dup6\n        /* \"#utility.yul\":10419:10497   */\n      tag_166\n      jump\t// in\n    tag_229:\n        /* \"#utility.yul\":10411:10497   */\n      swap1\n      pop\n        /* \"#utility.yul\":10507:10579   */\n      tag_230\n        /* \"#utility.yul\":10575:10577   */\n      0x40\n        /* \"#utility.yul\":10564:10573   */\n      dup4\n        /* \"#utility.yul\":10560:10578   */\n      add\n        /* \"#utility.yul\":10551:10557   */\n      dup5\n        /* \"#utility.yul\":10507:10579   */\n      tag_197\n      jump\t// in\n    tag_230:\n        /* \"#utility.yul\":10227:10586   */\n      swap5\n      swap4\n      pop\n      pop\n      pop\n      pop\n      jump\t// out\n        /* \"#utility.yul\":10592:10875   */\n    tag_121:\n      0x00\n        /* \"#utility.yul\":10658:10660   */\n      0x40\n        /* \"#utility.yul\":10652:10661   */\n      mload\n        /* \"#utility.yul\":10642:10661   */\n      swap1\n      pop\n        /* \"#utility.yul\":10700:10704   */\n      dup2\n        /* \"#utility.yul\":10692:10698   */\n      dup2\n        /* \"#utility.yul\":10688:10705   */\n      add\n        /* \"#utility.yul\":10807:10813   */\n      dup2\n        /* \"#utility.yul\":10795:10805   */\n      dup2\n        /* \"#utility.yul\":10792:10814   */\n      lt\n        /* \"#utility.yul\":10771:10789   */\n      0xffffffffffffffff\n        /* \"#utility.yul\":10759:10769   */\n      dup3\n        /* \"#utility.yul\":10756:10790   */\n      gt\n        /* \"#utility.yul\":10753:10815   */\n      or\n        /* \"#utility.yul\":10750:10752   */\n      iszero\n      tag_232\n      jumpi\n        /* \"#utility.yul\":10818:10836   */\n      tag_233\n      tag_234\n      jump\t// in\n    tag_233:\n        /* \"#utility.yul\":10750:10752   */\n    tag_232:\n        /* \"#utility.yul\":10858:10868   */\n      dup1\n        /* \"#utility.yul\":10854:10856   */\n      0x40\n        /* \"#utility.yul\":10847:10869   */\n      mstore\n        /* \"#utility.yul\":10632:10875   */\n      pop\n      swap2\n      swap1\n      pop\n      jump\t// out\n        /* \"#utility.yul\":10881:11213   */\n    tag_120:\n      0x00\n        /* \"#utility.yul\":11033:11051   */\n      0xffffffffffffffff\n        /* \"#utility.yul\":11025:11031   */\n      dup3\n        /* \"#utility.yul\":11022:11052   */\n      gt\n        /* \"#utility.yul\":11019:11021   */\n      iszero\n      tag_236\n      jumpi\n        /* \"#utility.yul\":11055:11073   */\n      tag_237\n      tag_234\n      jump\t// in\n    tag_237:\n        /* \"#utility.yul\":11019:11021   */\n    tag_236:\n        /* \"#utility.yul\":11140:11144   */\n      0x1f\n        /* \"#utility.yul\":11136:11145   */\n      not\n        /* \"#utility.yul\":11129:11133   */\n      0x1f\n        /* \"#utility.yul\":11121:11127   */\n      dup4\n        /* \"#utility.yul\":11117:11134   */\n      add\n        /* \"#utility.yul\":11113:11146   */\n      and\n        /* \"#utility.yul\":11105:11146   */\n      swap1\n      pop\n        /* \"#utility.yul\":11201:11205   */\n      0x20\n        /* \"#utility.yul\":11195:11199   */\n      dup2\n        /* \"#utility.yul\":11191:11206   */\n      add\n        /* \"#utility.yul\":11183:11206   */\n      swap1\n      pop\n        /* \"#utility.yul\":10948:11213   */\n      swap2\n      swap1\n      pop\n      jump\t// out\n        /* \"#utility.yul\":11219:11318   */\n    tag_169:\n      0x00\n        /* \"#utility.yul\":11305:11310   */\n      dup2\n        /* \"#utility.yul\":11299:11311   */\n      mload\n        /* \"#utility.yul\":11289:11311   */\n      swap1\n      pop\n        /* \"#utility.yul\":11278:11318   */\n      swap2\n      swap1\n      pop\n      jump\t// out\n        /* \"#utility.yul\":11324:11493   */\n    tag_171:\n      0x00\n        /* \"#utility.yul\":11442:11448   */\n      dup3\n        /* \"#utility.yul\":11437:11440   */\n      dup3\n        /* \"#utility.yul\":11430:11449   */\n      mstore\n        /* \"#utility.yul\":11482:11486   */\n      0x20\n        /* \"#utility.yul\":11477:11480   */\n      dup3\n        /* \"#utility.yul\":11473:11487   */\n      add\n        /* \"#utility.yul\":11458:11487   */\n      swap1\n      pop\n        /* \"#utility.yul\":11420:11493   */\n      swap3\n      swap2\n      pop\n      pop\n      jump\t// out\n        /* \"#utility.yul\":11499:11647   */\n    tag_180:\n      0x00\n        /* \"#utility.yul\":11638:11641   */\n      dup2\n        /* \"#utility.yul\":11623:11641   */\n      swap1\n      pop\n        /* \"#utility.yul\":11613:11647   */\n      swap3\n      swap2\n      pop\n      pop\n      jump\t// out\n        /* \"#utility.yul\":11653:11743   */\n    tag_161:\n      0x00\n        /* \"#utility.yul\":11730:11735   */\n      dup2\n        /* \"#utility.yul\":11723:11736   */\n      iszero\n        /* \"#utility.yul\":11716:11737   */\n      iszero\n        /* \"#utility.yul\":11705:11737   */\n      swap1\n      pop\n        /* \"#utility.yul\":11695:11743   */\n      swap2\n      swap1\n      pop\n      jump\t// out\n        /* \"#utility.yul\":11749:11826   */\n    tag_165:\n      0x00\n        /* \"#utility.yul\":11815:11820   */\n      dup2\n        /* \"#utility.yul\":11804:11820   */\n      swap1\n      pop\n        /* \"#utility.yul\":11794:11826   */\n      swap2\n      swap1\n      pop\n      jump\t// out\n        /* \"#utility.yul\":11832:11909   */\n    tag_200:\n      0x00\n        /* \"#utility.yul\":11898:11903   */\n      dup2\n        /* \"#utility.yul\":11887:11903   */\n      swap1\n      pop\n        /* \"#utility.yul\":11877:11909   */\n      swap2\n      swap1\n      pop\n      jump\t// out\n        /* \"#utility.yul\":11915:12069   */\n    tag_124:\n        /* \"#utility.yul\":11999:12005   */\n      dup3\n        /* \"#utility.yul\":11994:11997   */\n      dup2\n        /* \"#utility.yul\":11989:11992   */\n      dup4\n        /* \"#utility.yul\":11976:12006   */\n      calldatacopy\n        /* \"#utility.yul\":12061:12062   */\n      0x00\n        /* \"#utility.yul\":12052:12058   */\n      dup4\n        /* \"#utility.yul\":12047:12050   */\n      dup4\n        /* \"#utility.yul\":12043:12059   */\n      add\n        /* \"#utility.yul\":12036:12063   */\n      mstore\n        /* \"#utility.yul\":11966:12069   */\n      pop\n      pop\n      pop\n      jump\t// out\n        /* \"#utility.yul\":12075:12382   */\n    tag_173:\n        /* \"#utility.yul\":12143:12144   */\n      0x00\n        /* \"#utility.yul\":12153:12266   */\n    tag_246:\n        /* \"#utility.yul\":12167:12173   */\n      dup4\n        /* \"#utility.yul\":12164:12165   */\n      dup2\n        /* \"#utility.yul\":12161:12174   */\n      lt\n        /* \"#utility.yul\":12153:12266   */\n      iszero\n      tag_248\n      jumpi\n        /* \"#utility.yul\":12252:12253   */\n      dup1\n        /* \"#utility.yul\":12247:12250   */\n      dup3\n        /* \"#utility.yul\":12243:12254   */\n      add\n        /* \"#utility.yul\":12237:12255   */\n      mload\n        /* \"#utility.yul\":12233:12234   */\n      dup2\n        /* \"#utility.yul\":12228:12231   */\n      dup5\n        /* \"#utility.yul\":12224:12235   */\n      add\n        /* \"#utility.yul\":12217:12256   */\n      mstore\n        /* \"#utility.yul\":12189:12191   */\n      0x20\n        /* \"#utility.yul\":12186:12187   */\n      dup2\n        /* \"#utility.yul\":12182:12192   */\n      add\n        /* \"#utility.yul\":12177:12192   */\n      swap1\n      pop\n        /* \"#utility.yul\":12153:12266   */\n      jump(tag_246)\n    tag_248:\n        /* \"#utility.yul\":12284:12290   */\n      dup4\n        /* \"#utility.yul\":12281:12282   */\n      dup2\n        /* \"#utility.yul\":12278:12291   */\n      gt\n        /* \"#utility.yul\":12275:12277   */\n      iszero\n      tag_249\n      jumpi\n        /* \"#utility.yul\":12364:12365   */\n      0x00\n        /* \"#utility.yul\":12355:12361   */\n      dup5\n        /* \"#utility.yul\":12350:12353   */\n      dup5\n        /* \"#utility.yul\":12346:12362   */\n      add\n        /* \"#utility.yul\":12339:12366   */\n      mstore\n        /* \"#utility.yul\":12275:12277   */\n    tag_249:\n        /* \"#utility.yul\":12124:12382   */\n      pop\n      pop\n      pop\n      pop\n      jump\t// out\n        /* \"#utility.yul\":12388:12708   */\n    tag_59:\n      0x00\n        /* \"#utility.yul\":12469:12470   */\n      0x02\n        /* \"#utility.yul\":12463:12467   */\n      dup3\n        /* \"#utility.yul\":12459:12471   */\n      div\n        /* \"#utility.yul\":12449:12471   */\n      swap1\n      pop\n        /* \"#utility.yul\":12516:12517   */\n      0x01\n        /* \"#utility.yul\":12510:12514   */\n      dup3\n        /* \"#utility.yul\":12506:12518   */\n      and\n        /* \"#utility.yul\":12537:12555   */\n      dup1\n        /* \"#utility.yul\":12527:12529   */\n      tag_251\n      jumpi\n        /* \"#utility.yul\":12593:12597   */\n      0x7f\n        /* \"#utility.yul\":12585:12591   */\n      dup3\n        /* \"#utility.yul\":12581:12598   */\n      and\n        /* \"#utility.yul\":12571:12598   */\n      swap2\n      pop\n        /* \"#utility.yul\":12527:12529   */\n    tag_251:\n        /* \"#utility.yul\":12655:12657   */\n      0x20\n        /* \"#utility.yul\":12647:12653   */\n      dup3\n        /* \"#utility.yul\":12644:12658   */\n      lt\n        /* \"#utility.yul\":12624:12642   */\n      dup2\n        /* \"#utility.yul\":12621:12659   */\n      eq\n        /* \"#utility.yul\":12618:12620   */\n      iszero\n      tag_252\n      jumpi\n        /* \"#utility.yul\":12674:12692   */\n      tag_253\n      tag_254\n      jump\t// in\n    tag_253:\n        /* \"#utility.yul\":12618:12620   */\n    tag_252:\n        /* \"#utility.yul\":12439:12708   */\n      pop\n      swap2\n      swap1\n      pop\n      jump\t// out\n        /* \"#utility.yul\":12714:12947   */\n    tag_72:\n      0x00\n        /* \"#utility.yul\":12776:12800   */\n      tag_256\n        /* \"#utility.yul\":12794:12799   */\n      dup3\n        /* \"#utility.yul\":12776:12800   */\n      tag_200\n      jump\t// in\n    tag_256:\n        /* \"#utility.yul\":12767:12800   */\n      swap2\n      pop\n        /* \"#utility.yul\":12822:12888   */\n      0xffffffffffffffffffffffffffffffffffffffffffffffffffffffffffffffff\n        /* \"#utility.yul\":12815:12820   */\n      dup3\n        /* \"#utility.yul\":12812:12889   */\n      eq\n        /* \"#utility.yul\":12809:12811   */\n      iszero\n      tag_257\n      jumpi\n        /* \"#utility.yul\":12892:12910   */\n      tag_258\n      tag_259\n      jump\t// in\n    tag_258:\n        /* \"#utility.yul\":12809:12811   */\n    tag_257:\n        /* \"#utility.yul\":12939:12940   */\n      0x01\n        /* \"#utility.yul\":12932:12937   */\n      dup3\n        /* \"#utility.yul\":12928:12941   */\n      add\n        /* \"#utility.yul\":12921:12941   */\n      swap1\n      pop\n        /* \"#utility.yul\":12757:12947   */\n      swap2\n      swap1\n      pop\n      jump\t// out\n        /* \"#utility.yul\":12953:13133   */\n    tag_259:\n        /* \"#utility.yul\":13001:13078   */\n      0x4e487b7100000000000000000000000000000000000000000000000000000000\n        /* \"#utility.yul\":12998:12999   */\n      0x00\n        /* \"#utility.yul\":12991:13079   */\n      mstore\n        /* \"#utility.yul\":13098:13102   */\n      0x11\n        /* \"#utility.yul\":13095:13096   */\n      0x04\n        /* \"#utility.yul\":13088:13103   */\n      mstore\n        /* \"#utility.yul\":13122:13126   */\n      0x24\n        /* \"#utility.yul\":13119:13120   */\n      0x00\n        /* \"#utility.yul\":13112:13127   */\n      revert\n        /* \"#utility.yul\":13139:13319   */\n    tag_254:\n        /* \"#utility.yul\":13187:13264   */\n      0x4e487b7100000000000000000000000000000000000000000000000000000000\n        /* \"#utility.yul\":13184:13185   */\n      0x00\n        /* \"#utility.yul\":13177:13265   */\n      mstore\n        /* \"#utility.yul\":13284:13288   */\n      0x22\n        /* \"#utility.yul\":13281:13282   */\n      0x04\n        /* \"#utility.yul\":13274:13289   */\n      mstore\n        /* \"#utility.yul\":13308:13312   */\n      0x24\n        /* \"#utility.yul\":13305:13306   */\n      0x00\n        /* \"#utility.yul\":13298:13313   */\n      revert\n        /* \"#utility.yul\":13325:13505   */\n    tag_234:\n        /* \"#utility.yul\":13373:13450   */\n      0x4e487b7100000000000000000000000000000000000000000000000000000000\n        /* \"#utility.yul\":13370:13371   */\n      0x00\n        /* \"#utility.yul\":13363:13451   */\n      mstore\n        /* \"#utility.yul\":13470:13474   */\n      0x41\n        /* \"#utility.yul\":13467:13468   */\n      0x04\n        /* \"#utility.yul\":13460:13475   */\n      mstore\n        /* \"#utility.yul\":13494:13498   */\n      0x24\n        /* \"#utility.yul\":13491:13492   */\n      0x00\n        /* \"#utility.yul\":13484:13499   */\n      revert\n        /* \"#utility.yul\":13511:13613   */\n    tag_175:\n      0x00\n        /* \"#utility.yul\":13603:13605   */\n      0x1f\n        /* \"#utility.yul\":13599:13606   */\n      not\n        /* \"#utility.yul\":13594:13596   */\n      0x1f\n        /* \"#utility.yul\":13587:13592   */\n      dup4\n        /* \"#utility.yul\":13583:13597   */\n      add\n        /* \"#utility.yul\":13579:13607   */\n      and\n        /* \"#utility.yul\":13569:13607   */\n      swap1\n      pop\n        /* \"#utility.yul\":13559:13613   */\n      swap2\n      swap1\n      pop\n      jump\t// out\n        /* \"#utility.yul\":13619:13741   */\n    tag_128:\n        /* \"#utility.yul\":13692:13716   */\n      tag_265\n        /* \"#utility.yul\":13710:13715   */\n      dup2\n        /* \"#utility.yul\":13692:13716   */\n      tag_165\n      jump\t// in\n    tag_265:\n        /* \"#utility.yul\":13685:13690   */\n      dup2\n        /* \"#utility.yul\":13682:13717   */\n      eq\n        /* \"#utility.yul\":13672:13674   */\n      tag_266\n      jumpi\n        /* \"#utility.yul\":13731:13732   */\n      0x00\n        /* \"#utility.yul\":13728:13729   */\n      dup1\n        /* \"#utility.yul\":13721:13733   */\n      revert\n        /* \"#utility.yul\":13672:13674   */\n    tag_266:\n        /* \"#utility.yul\":13662:13741   */\n      pop\n      jump\t// out\n        /* \"#utility.yul\":13747:13869   */\n    tag_136:\n        /* \"#utility.yul\":13820:13844   */\n      tag_268\n        /* \"#utility.yul\":13838:13843   */\n      dup2\n        /* \"#utility.yul\":13820:13844   */\n      tag_200\n      jump\t// in\n    tag_268:\n        /* \"#utility.yul\":13813:13818   */\n      dup2\n        /* \"#utility.yul\":13810:13845   */\n      eq\n        /* \"#utility.yul\":13800:13802   */\n      tag_269\n      jumpi\n        /* \"#utility.yul\":13859:13860   */\n      0x00\n        /* \"#utility.yul\":13856:13857   */\n      dup1\n        /* \"#utility.yul\":13849:13861   */\n      revert\n        /* \"#utility.yul\":13800:13802   */\n    tag_269:\n        /* \"#utility.yul\":13790:13869   */\n      pop\n      jump\t// out\n\n    auxdata: 0xa2646970667358221220d990d85fd4017d78d7e34388f548fd2cd5d77e8b3e5a3c408973b3d0c01c5af464736f6c63430008000033\n}\n",
				"bytecode": {
					"linkReferences": {},
					"object": "608060405234801561001057600080fd5b50611125806100206000396000f3fe608060405234801561001057600080fd5b506004361061009e5760003560e01c8063637239c511610066578063637239c514610183578063703a4d76146101b357806380263e7a146101cf578063a9a981a3146101eb578063b1abc372146102095761009e565b80633477ee2e146100a357806335b8e820146100d557806339bfeae314610107578063462e91ec146101375780634ef7032414610153575b600080fd5b6100bd60048036038101906100b89190610af5565b610239565b6040516100cc93929190610e80565b60405180910390f35b6100ef60048036038101906100ea9190610af5565b6102eb565b6040516100fe93929190610e80565b60405180910390f35b610121600480360381019061011c91906109f9565b6103d4565b60405161012e9190610d0c565b60405180910390f35b610151600480360381019061014c91906109f9565b61040a565b005b61016d600480360381019061016891906109f9565b6104c6565b60405161017a9190610d0c565b60405180910390f35b61019d600480360381019061019891906109d0565b6104fc565b6040516101aa9190610d0c565b60405180910390f35b6101cd60048036038101906101c89190610a8e565b61051c565b005b6101e960048036038101906101e49190610a3a565b610708565b005b6101f3610875565b6040516102009190610e35565b60405180910390f35b610223600480360381019061021e91906109d0565b61087b565b6040516102309190610d0c565b60405180910390f35b600060205280600052604060002060009150905080600001549080600101805461026290610fa8565b80601f016020809104026020016040519081016040528092919081815260200182805461028e90610fa8565b80156102db5780601f106102b0576101008083540402835291602001916102db565b820191906000526020600020905b8154815290600101906020018083116102be57829003601f168201915b5050505050908060020154905083565b600060606000806000808681526020019081526020016000206040518060600160405290816000820154815260200160018201805461032990610fa8565b80601f016020809104026020016040519081016040528092919081815260200182805461035590610fa8565b80156103a25780601f10610377576101008083540402835291602001916103a2565b820191906000526020600020905b81548152906001019060200180831161038557829003601f168201915b505050505081526020016002820154815250509050806000015181602001518260400151935093509350509193909250565b6002818051602081018201805184825260208301602085012081835280955050505050506000915054906101000a900460ff1681565b6001600081548092919061041d90610fda565b9190505550604051806060016040528060015481526020018281526020016000815250600080600154815260200190815260200160002060008201518160000155602082015181600101908051906020019061047a92919061089b565b50604082015181600201559050507fe83b2a43e7e82d975c8a0a6d2f045153c869e111136a34d1889ab7b598e396a3600154826040516104bb929190610e50565b60405180910390a150565b6005818051602081018201805184825260208301602085012081835280955050505050506000915054906101000a900460ff1681565b60036020528060005260406000206000915054906101000a900460ff1681565b60028360405161052c9190610cf5565b908152602001604051809103902060009054906101000a900460ff1615610588576040517f08c379a000000000000000000000000000000000000000000000000000000000815260040161057f90610dd5565b60405180910390fd5b6003600083815260200190815260200160002060009054906101000a900460ff16156105e9576040517f08c379a00000000000000000000000000000000000000000000000000000000081526004016105e090610db5565b60405180910390fd5b6000811180156105fb57506001548111155b61063a576040517f08c379a000000000000000000000000000000000000000000000000000000000815260040161063190610d95565b60405180910390fd5b600080828152602001908152602001600020600201600081548092919061066090610fda565b919050555060016002846040516106779190610cf5565b908152602001604051809103902060006101000a81548160ff02191690831515021790555060016003600084815260200190815260200160002060006101000a81548160ff0219169083151502179055507f6f53811441712cd87b770c17775ff89ef545dfdbea8b7d659c8e211903bc31c98383836040516106fb93929190610d57565b60405180910390a1505050565b6004600082815260200190815260200160002060009054906101000a900460ff1615610769576040517f08c379a000000000000000000000000000000000000000000000000000000000815260040161076090610df5565b60405180910390fd5b6005826040516107799190610cf5565b908152602001604051809103902060009054906101000a900460ff16156107d5576040517f08c379a00000000000000000000000000000000000000000000000000000000081526004016107cc90610e15565b60405180910390fd5b60016004600083815260200190815260200160002060006101000a81548160ff02191690831515021790555060016005836040516108139190610cf5565b908152602001604051809103902060006101000a81548160ff0219169083151502179055507f90f4f8c28c2093cea4c155471c57dd544cd9b0b1a4e234db28e7d7bc48bf75418282604051610869929190610d27565b60405180910390a15050565b60015481565b60046020528060005260406000206000915054906101000a900460ff1681565b8280546108a790610fa8565b90600052602060002090601f0160209004810192826108c95760008555610910565b82601f106108e257805160ff1916838001178555610910565b82800160010185558215610910579182015b8281111561090f5782518255916020019190600101906108f4565b5b50905061091d9190610921565b5090565b5b8082111561093a576000816000905550600101610922565b5090565b600061095161094c84610eef565b610ebe565b90508281526020810184848401111561096957600080fd5b610974848285610f66565b509392505050565b60008135905061098b816110c1565b92915050565b600082601f8301126109a257600080fd5b81356109b284826020860161093e565b91505092915050565b6000813590506109ca816110d8565b92915050565b6000602082840312156109e257600080fd5b60006109f08482850161097c565b91505092915050565b600060208284031215610a0b57600080fd5b600082013567ffffffffffffffff811115610a2557600080fd5b610a3184828501610991565b91505092915050565b60008060408385031215610a4d57600080fd5b600083013567ffffffffffffffff811115610a6757600080fd5b610a7385828601610991565b9250506020610a848582860161097c565b9150509250929050565b600080600060608486031215610aa357600080fd5b600084013567ffffffffffffffff811115610abd57600080fd5b610ac986828701610991565b9350506020610ada8682870161097c565b9250506040610aeb868287016109bb565b9150509250925092565b600060208284031215610b0757600080fd5b6000610b15848285016109bb565b91505092915050565b610b2781610f46565b82525050565b610b3681610f52565b82525050565b6000610b4782610f1f565b610b518185610f2a565b9350610b61818560208601610f75565b610b6a816110b0565b840191505092915050565b6000610b8082610f1f565b610b8a8185610f3b565b9350610b9a818560208601610f75565b80840191505092915050565b6000610bb3601183610f2a565b91507f496e76616c69642063616e6469646174650000000000000000000000000000006000830152602082019050919050565b6000610bf3601183610f2a565b91507f4661636520616c726561647920757365640000000000000000000000000000006000830152602082019050919050565b6000610c33601e83610f2a565b91507f596f7520616c726561647920766f7465642028656e726f6c6c6d656e742900006000830152602082019050919050565b6000610c73601783610f2a565b91507f4661636520616c726561647920726567697374657265640000000000000000006000830152602082019050919050565b6000610cb3601d83610f2a565b91507f456e726f6c6c6d656e7420616c726561647920726567697374657265640000006000830152602082019050919050565b610cef81610f5c565b82525050565b6000610d018284610b75565b915081905092915050565b6000602082019050610d216000830184610b1e565b92915050565b60006040820190508181036000830152610d418185610b3c565b9050610d506020830184610b2d565b9392505050565b60006060820190508181036000830152610d718186610b3c565b9050610d806020830185610b2d565b610d8d6040830184610ce6565b949350505050565b60006020820190508181036000830152610dae81610ba6565b9050919050565b60006020820190508181036000830152610dce81610be6565b9050919050565b60006020820190508181036000830152610dee81610c26565b9050919050565b60006020820190508181036000830152610e0e81610c66565b9050919050565b60006020820190508181036000830152610e2e81610ca6565b9050919050565b6000602082019050610e4a6000830184610ce6565b92915050565b6000604082019050610e656000830185610ce6565b8181036020830152610e778184610b3c565b90509392505050565b6000606082019050610e956000830186610ce6565b8181036020830152610ea78185610b3c565b9050610eb66040830184610ce6565b949350505050565b6000604051905081810181811067ffffffffffffffff82111715610ee557610ee4611081565b5b8060405250919050565b600067ffffffffffffffff821115610f0a57610f09611081565b5b601f19601f8301169050602081019050919050565b600081519050919050565b600082825260208201905092915050565b600081905092915050565b60008115159050919050565b6000819050919050565b6000819050919050565b82818337600083830152505050565b60005b83811015610f93578082015181840152602081019050610f78565b83811115610fa2576000848401525b50505050565b60006002820490506001821680610fc057607f821691505b60208210811415610fd457610fd3611052565b5b50919050565b6000610fe582610f5c565b91507fffffffffffffffffffffffffffffffffffffffffffffffffffffffffffffffff82141561101857611017611023565b5b600182019050919050565b7f4e487b7100000000000000000000000000000000000000000000000000000000600052601160045260246000fd5b7f4e487b7100000000000000000000000000000000000000000000000000000000600052602260045260246000fd5b7f4e487b7100000000000000000000000000000000000000000000000000000000600052604160045260246000fd5b6000601f19601f8301169050919050565b6110ca81610f52565b81146110d557600080fd5b50565b6110e181610f5c565b81146110ec57600080fd5b5056fea2646970667358221220d990d85fd4017d78d7e34388f548fd2cd5d77e8b3e5a3c408973b3d0c01c5af464736f6c63430008000033",
					"opcodes": "PUSH1 0x80 PUSH1 0x40 MSTORE CALLVALUE DUP1 ISZERO PUSH2 0x10 JUMPI PUSH1 0x0 DUP1 REVERT JUMPDEST POP PUSH2 0x1125 DUP1 PUSH2 0x20 PUSH1 0x0 CODECOPY PUSH1 0x0 RETURN INVALID PUSH1 0x80 PUSH1 0x40 MSTORE CALLVALUE DUP1 ISZERO PUSH2 0x10 JUMPI PUSH1 0x0 DUP1 REVERT JUMPDEST POP PUSH1 0x4 CALLDATASIZE LT PUSH2 0x9E JUMPI PUSH1 0x0 CALLDATALOAD PUSH1 0xE0 SHR DUP1 PUSH4 0x637239C5 GT PUSH2 0x66 JUMPI DUP1 PUSH4 0x637239C5 EQ PUSH2 0x183 JUMPI DUP1 PUSH4 0x703A4D76 EQ PUSH2 0x1B3 JUMPI DUP1 PUSH4 0x80263E7A EQ PUSH2 0x1CF JUMPI DUP1 PUSH4 0xA9A981A3 EQ PUSH2 0x1EB JUMPI DUP1 PUSH4 0xB1ABC372 EQ PUSH2 0x209 JUMPI PUSH2 0x9E JUMP JUMPDEST DUP1 PUSH4 0x3477EE2E EQ PUSH2 0xA3 JUMPI DUP1 PUSH4 0x35B8E820 EQ PUSH2 0xD5 JUMPI DUP1 PUSH4 0x39BFEAE3 EQ PUSH2 0x107 JUMPI DUP1 PUSH4 0x462E91EC EQ PUSH2 0x137 JUMPI DUP1 PUSH4 0x4EF70324 EQ PUSH2 0x153 JUMPI JUMPDEST PUSH1 0x0 DUP1 REVERT JUMPDEST PUSH2 0xBD PUSH1 0x4 DUP1 CALLDATASIZE SUB DUP2 ADD SWAP1 PUSH2 0xB8 SWAP2 SWAP1 PUSH2 0xAF5 JUMP JUMPDEST PUSH2 0x239 JUMP JUMPDEST PUSH1 0x40 MLOAD PUSH2 0xCC SWAP4 SWAP3 SWAP2 SWAP1 PUSH2 0xE80 JUMP JUMPDEST PUSH1 0x40 MLOAD DUP1 SWAP2 SUB SWAP1 RETURN JUMPDEST PUSH2 0xEF PUSH1 0x4 DUP1 CALLDATASIZE SUB DUP2 ADD SWAP1 PUSH2 0xEA SWAP2 SWAP1 PUSH2 0xAF5 JUMP JUMPDEST PUSH2 0x2EB JUMP JUMPDEST PUSH1 0x40 MLOAD PUSH2 0xFE SWAP4 SWAP3 SWAP2 SWAP1 PUSH2 0xE80 JUMP JUMPDEST PUSH1 0x40 MLOAD DUP1 SWAP2 SUB SWAP1 RETURN JUMPDEST PUSH2 0x121 PUSH1 0x4 DUP1 CALLDATASIZE SUB DUP2 ADD SWAP1 PUSH2 0x11C SWAP2 SWAP1 PUSH2 0x9F9 JUMP JUMPDEST PUSH2 0x3D4 JUMP JUMPDEST PUSH1 0x40 MLOAD PUSH2 0x12E SWAP2 SWAP1 PUSH2 0xD0C JUMP JUMPDEST PUSH1 0x40 MLOAD DUP1 SWAP2 SUB SWAP1 RETURN JUMPDEST PUSH2 0x151 PUSH1 0x4 DUP1 CALLDATASIZE SUB DUP2 ADD SWAP1 PUSH2 0x14C SWAP2 SWAP1 PUSH2 0x9F9 JUMP JUMPDEST PUSH2 0x40A JUMP JUMPDEST STOP JUMPDEST PUSH2 0x16D PUSH1 0x4 DUP1 CALLDATASIZE SUB DUP2 ADD SWAP1 PUSH2 0x168 SWAP2 SWAP1 PUSH2 0x9F9 JUMP JUMPDEST PUSH2 0x4C6 JUMP JUMPDEST PUSH1 0x40 MLOAD PUSH2 0x17A SWAP2 SWAP1 PUSH2 0xD0C JUMP JUMPDEST PUSH1 0x40 MLOAD DUP1 SWAP2 SUB SWAP1 RETURN JUMPDEST PUSH2 0x19D PUSH1 0x4 DUP1 CALLDATASIZE SUB DUP2 ADD SWAP1 PUSH2 0x198 SWAP2 SWAP1 PUSH2 0x9D0 JUMP JUMPDEST PUSH2 0x4FC JUMP JUMPDEST PUSH1 0x40 MLOAD PUSH2 0x1AA SWAP2 SWAP1 PUSH2 0xD0C JUMP JUMPDEST PUSH1 0x40 MLOAD DUP1 SWAP2 SUB SWAP1 RETURN JUMPDEST PUSH2 0x1CD PUSH1 0x4 DUP1 CALLDATASIZE SUB DUP2 ADD SWAP1 PUSH2 0x1C8 SWAP2 SWAP1 PUSH2 0xA8E JUMP JUMPDEST PUSH2 0x51C JUMP JUMPDEST STOP JUMPDEST PUSH2 0x1E9 PUSH1 0x4 DUP1 CALLDATASIZE SUB DUP2 ADD SWAP1 PUSH2 0x1E4 SWAP2 SWAP1 PUSH2 0xA3A JUMP JUMPDEST PUSH2 0x708 JUMP JUMPDEST STOP JUMPDEST PUSH2 0x1F3 PUSH2 0x875 JUMP JUMPDEST PUSH1 0x40 MLOAD PUSH2 0x200 SWAP2 SWAP1 PUSH2 0xE35 JUMP JUMPDEST PUSH1 0x40 MLOAD DUP1 SWAP2 SUB SWAP1 RETURN JUMPDEST PUSH2 0x223 PUSH1 0x4 DUP1 CALLDATASIZE SUB DUP2 ADD SWAP1 PUSH2 0x21E SWAP2 SWAP1 PUSH2 0x9D0 JUMP JUMPDEST PUSH2 0x87B JUMP JUMPDEST PUSH1 0x40 MLOAD PUSH2 0x230 SWAP2 SWAP1 PUSH2 0xD0C JUMP JUMPDEST PUSH1 0x40 MLOAD DUP1 SWAP2 SUB SWAP1 RETURN JUMPDEST PUSH1 0x0 PUSH1 0x20 MSTORE DUP1 PUSH1 0x0 MSTORE PUSH1 0x40 PUSH1 0x0 KECCAK256 PUSH1 0x0 SWAP2 POP SWAP1 POP DUP1 PUSH1 0x0 ADD SLOAD SWAP1 DUP1 PUSH1 0x1 ADD DUP1 SLOAD PUSH2 0x262 SWAP1 PUSH2 0xFA8 JUMP JUMPDEST DUP1 PUSH1 0x1F ADD PUSH1 0x20 DUP1 SWAP2 DIV MUL PUSH1 0x20 ADD PUSH1 0x40 MLOAD SWAP1 DUP2 ADD PUSH1 0x40 MSTORE DUP1 SWAP3 SWAP2 SWAP1 DUP2 DUP2 MSTORE PUSH1 0x20 ADD DUP3 DUP1 SLOAD PUSH2 0x28E SWAP1 PUSH2 0xFA8 JUMP JUMPDEST DUP1 ISZERO PUSH2 0x2DB JUMPI DUP1 PUSH1 0x1F LT PUSH2 0x2B0 JUMPI PUSH2 0x100 DUP1 DUP4 SLOAD DIV MUL DUP4 MSTORE SWAP2 PUSH1 0x20 ADD SWAP2 PUSH2 0x2DB JUMP JUMPDEST DUP3 ADD SWAP2 SWAP1 PUSH1 0x0 MSTORE PUSH1 0x20 PUSH1 0x0 KECCAK256 SWAP1 JUMPDEST DUP2 SLOAD DUP2 MSTORE SWAP1 PUSH1 0x1 ADD SWAP1 PUSH1 0x20 ADD DUP1 DUP4 GT PUSH2 0x2BE JUMPI DUP3 SWAP1 SUB PUSH1 0x1F AND DUP3 ADD SWAP2 JUMPDEST POP POP POP POP POP SWAP1 DUP1 PUSH1 0x2 ADD SLOAD SWAP1 POP DUP4 JUMP JUMPDEST PUSH1 0x0 PUSH1 0x60 PUSH1 0x0 DUP1 PUSH1 0x0 DUP1 DUP7 DUP2 MSTORE PUSH1 0x20 ADD SWAP1 DUP2 MSTORE PUSH1 0x20 ADD PUSH1 0x0 KECCAK256 PUSH1 0x40 MLOAD DUP1 PUSH1 0x60 ADD PUSH1 0x40 MSTORE SWAP1 DUP2 PUSH1 0x0 DUP3 ADD SLOAD DUP2 MSTORE PUSH1 0x20 ADD PUSH1 0x1 DUP3 ADD DUP1 SLOAD PUSH2 0x329 SWAP1 PUSH2 0xFA8 JUMP JUMPDEST DUP1 PUSH1 0x1F ADD PUSH1 0x20 DUP1 SWAP2 DIV MUL PUSH1 0x20 ADD PUSH1 0x40 MLOAD SWAP1 DUP2 ADD PUSH1 0x40 MSTORE DUP1 SWAP3 SWAP2 SWAP1 DUP2 DUP2 MSTORE PUSH1 0x20 ADD DUP3 DUP1 SLOAD PUSH2 0x355 SWAP1 PUSH2 0xFA8 JUMP JUMPDEST DUP1 ISZERO PUSH2 0x3A2 JUMPI DUP1 PUSH1 0x1F LT PUSH2 0x377 JUMPI PUSH2 0x100 DUP1 DUP4 SLOAD DIV MUL DUP4 MSTORE SWAP2 PUSH1 0x20 ADD SWAP2 PUSH2 0x3A2 JUMP JUMPDEST DUP3 ADD SWAP2 SWAP1 PUSH1 0x0 MSTORE PUSH1 0x20 PUSH1 0x0 KECCAK256 SWAP1 JUMPDEST DUP2 SLOAD DUP2 MSTORE SWAP1 PUSH1 0x1 ADD SWAP1 PUSH1 0x20 ADD DUP1 DUP4 GT PUSH2 0x385 JUMPI DUP3 SWAP1 SUB PUSH1 0x1F AND DUP3 ADD SWAP2 JUMPDEST POP POP POP POP POP DUP2 MSTORE PUSH1 0x20 ADD PUSH1 0x2 DUP3 ADD SLOAD DUP2 MSTORE POP POP SWAP1 POP DUP1 PUSH1 0x0 ADD MLOAD DUP2 PUSH1 0x20 ADD MLOAD DUP3 PUSH1 0x40 ADD MLOAD SWAP4 POP SWAP4 POP SWAP4 POP POP SWAP2 SWAP4 SWAP1 SWAP3 POP JUMP JUMPDEST PUSH1 0x2 DUP2 DUP1 MLOAD PUSH1 0x20 DUP2 ADD DUP3 ADD DUP1 MLOAD DUP5 DUP3 MSTORE PUSH1 0x20 DUP4 ADD PUSH1 0x20 DUP6 ADD KECCAK256 DUP2 DUP4 MSTORE DUP1 SWAP6 POP POP POP POP POP POP PUSH1 0x0 SWAP2 POP SLOAD SWAP1 PUSH2 0x100 EXP SWAP1 DIV PUSH1 0xFF AND DUP2 JUMP JUMPDEST PUSH1 0x1 PUSH1 0x0 DUP2 SLOAD DUP1 SWAP3 SWAP2 SWAP1 PUSH2 0x41D SWAP1 PUSH2 0xFDA JUMP JUMPDEST SWAP2 SWAP1 POP SSTORE POP PUSH1 0x40 MLOAD DUP1 PUSH1 0x60 ADD PUSH1 0x40 MSTORE DUP1 PUSH1 0x1 SLOAD DUP2 MSTORE PUSH1 0x20 ADD DUP3 DUP2 MSTORE PUSH1 0x20 ADD PUSH1 0x0 DUP2 MSTORE POP PUSH1 0x0 DUP1 PUSH1 0x1 SLOAD DUP2 MSTORE PUSH1 0x20 ADD SWAP1 DUP2 MSTORE PUSH1 0x20 ADD PUSH1 0x0 KECCAK256 PUSH1 0x0 DUP3 ADD MLOAD DUP2 PUSH1 0x0 ADD SSTORE PUSH1 0x20 DUP3 ADD MLOAD DUP2 PUSH1 0x1 ADD SWAP1 DUP1 MLOAD SWAP1 PUSH1 0x20 ADD SWAP1 PUSH2 0x47A SWAP3 SWAP2 SWAP1 PUSH2 0x89B JUMP JUMPDEST POP PUSH1 0x40 DUP3 ADD MLOAD DUP2 PUSH1 0x2 ADD SSTORE SWAP1 POP POP PUSH32 0xE83B2A43E7E82D975C8A0A6D2F045153C869E111136A34D1889AB7B598E396A3 PUSH1 0x1 SLOAD DUP3 PUSH1 0x40 MLOAD PUSH2 0x4BB SWAP3 SWAP2 SWAP1 PUSH2 0xE50 JUMP JUMPDEST PUSH1 0x40 MLOAD DUP1 SWAP2 SUB SWAP1 LOG1 POP JUMP JUMPDEST PUSH1 0x5 DUP2 DUP1 MLOAD PUSH1 0x20 DUP2 ADD DUP3 ADD DUP1 MLOAD DUP5 DUP3 MSTORE PUSH1 0x20 DUP4 ADD PUSH1 0x20 DUP6 ADD KECCAK256 DUP2 DUP4 MSTORE DUP1 SWAP6 POP POP POP POP POP POP PUSH1 0x0 SWAP2 POP SLOAD SWAP1 PUSH2 0x100 EXP SWAP1 DIV PUSH1 0xFF AND DUP2 JUMP JUMPDEST PUSH1 0x3 PUSH1 0x20 MSTORE DUP1 PUSH1 0x0 MSTORE PUSH1 0x40 PUSH1 0x0 KECCAK256 PUSH1 0x0 SWAP2 POP SLOAD SWAP1 PUSH2 0x100 EXP SWAP1 DIV PUSH1 0xFF AND DUP2 JUMP JUMPDEST PUSH1 0x2 DUP4 PUSH1 0x40 MLOAD PUSH2 0x52C SWAP2 SWAP1 PUSH2 0xCF5 JUMP JUMPDEST SWAP1 DUP2 MSTORE PUSH1 0x20 ADD PUSH1 0x40 MLOAD DUP1 SWAP2 SUB SWAP1 KECCAK256 PUSH1 0x0 SWAP1 SLOAD SWAP1 PUSH2 0x100 EXP SWAP1 DIV PUSH1 0xFF AND ISZERO PUSH2 0x588 JUMPI PUSH1 0x40 MLOAD PUSH32 0x8C379A000000000000000000000000000000000000000000000000000000000 DUP2 MSTORE PUSH1 0x4 ADD PUSH2 0x57F SWAP1 PUSH2 0xDD5 JUMP JUMPDEST PUSH1 0x40 MLOAD DUP1 SWAP2 SUB SWAP1 REVERT JUMPDEST PUSH1 0x3 PUSH1 0x0 DUP4 DUP2 MSTORE PUSH1 0x20 ADD SWAP1 DUP2 MSTORE PUSH1 0x20 ADD PUSH1 0x0 KECCAK256 PUSH1 0x0 SWAP1 SLOAD SWAP1 PUSH2 0x100 EXP SWAP1 DIV PUSH1 0xFF AND ISZERO PUSH2 0x5E9 JUMPI PUSH1 0x40 MLOAD PUSH32 0x8C379A000000000000000000000000000000000000000000000000000000000 DUP2 MSTORE PUSH1 0x4 ADD PUSH2 0x5E0 SWAP1 PUSH2 0xDB5 JUMP JUMPDEST PUSH1 0x40 MLOAD DUP1 SWAP2 SUB SWAP1 REVERT JUMPDEST PUSH1 0x0 DUP2 GT DUP1 ISZERO PUSH2 0x5FB JUMPI POP PUSH1 0x1 SLOAD DUP2 GT ISZERO JUMPDEST PUSH2 0x63A JUMPI PUSH1 0x40 MLOAD PUSH32 0x8C379A000000000000000000000000000000000000000000000000000000000 DUP2 MSTORE PUSH1 0x4 ADD PUSH2 0x631 SWAP1 PUSH2 0xD95 JUMP JUMPDEST PUSH1 0x40 MLOAD DUP1 SWAP2 SUB SWAP1 REVERT JUMPDEST PUSH1 0x0 DUP1 DUP3 DUP2 MSTORE PUSH1 0x20 ADD SWAP1 DUP2 MSTORE PUSH1 0x20 ADD PUSH1 0x0 KECCAK256 PUSH1 0x2 ADD PUSH1 0x0 DUP2 SLOAD DUP1 SWAP3 SWAP2 SWAP1 PUSH2 0x660 SWAP1 PUSH2 0xFDA JUMP JUMPDEST SWAP2 SWAP1 POP SSTORE POP PUSH1 0x1 PUSH1 0x2 DUP5 PUSH1 0x40 MLOAD PUSH2 0x677 SWAP2 SWAP1 PUSH2 0xCF5 JUMP JUMPDEST SWAP1 DUP2 MSTORE PUSH1 0x20 ADD PUSH1 0x40 MLOAD DUP1 SWAP2 SUB SWAP1 KECCAK256 PUSH1 0x0 PUSH2 0x100 EXP DUP2 SLOAD DUP2 PUSH1 0xFF MUL NOT AND SWAP1 DUP4 ISZERO ISZERO MUL OR SWAP1 SSTORE POP PUSH1 0x1 PUSH1 0x3 PUSH1 0x0 DUP5 DUP2 MSTORE PUSH1 0x20 ADD SWAP1 DUP2 MSTORE PUSH1 0x20 ADD PUSH1 0x0 KECCAK256 PUSH1 0x0 PUSH2 0x100 EXP DUP2 SLOAD DUP2 PUSH1 0xFF MUL NOT AND SWAP1 DUP4 ISZERO ISZERO MUL OR SWAP1 SSTORE POP PUSH32 0x6F53811441712CD87B770C17775FF89EF545DFDBEA8B7D659C8E211903BC31C9 DUP4 DUP4 DUP4 PUSH1 0x40 MLOAD PUSH2 0x6FB SWAP4 SWAP3 SWAP2 SWAP1 PUSH2 0xD57 JUMP JUMPDEST PUSH1 0x40 MLOAD DUP1 SWAP2 SUB SWAP1 LOG1 POP POP POP JUMP JUMPDEST PUSH1 0x4 PUSH1 0x0 DUP3 DUP2 MSTORE PUSH1 0x20 ADD SWAP1 DUP2 MSTORE PUSH1 0x20 ADD PUSH1 0x0 KECCAK256 PUSH1 0x0 SWAP1 SLOAD SWAP1 PUSH2 0x100 EXP SWAP1 DIV PUSH1 0xFF AND ISZERO PUSH2 0x769 JUMPI PUSH1 0x40 MLOAD PUSH32 0x8C379A000000000000000000000000000000000000000000000000000000000 DUP2 MSTORE PUSH1 0x4 ADD PUSH2 0x760 SWAP1 PUSH2 0xDF5 JUMP JUMPDEST PUSH1 0x40 MLOAD DUP1 SWAP2 SUB SWAP1 REVERT JUMPDEST PUSH1 0x5 DUP3 PUSH1 0x40 MLOAD PUSH2 0x779 SWAP2 SWAP1 PUSH2 0xCF5 JUMP JUMPDEST SWAP1 DUP2 MSTORE PUSH1 0x20 ADD PUSH1 0x40 MLOAD DUP1 SWAP2 SUB SWAP1 KECCAK256 PUSH1 0x0 SWAP1 SLOAD SWAP1 PUSH2 0x100 EXP SWAP1 DIV PUSH1 0xFF AND ISZERO PUSH2 0x7D5 JUMPI PUSH1 0x40 MLOAD PUSH32 0x8C379A000000000000000000000000000000000000000000000000000000000 DUP2 MSTORE PUSH1 0x4 ADD PUSH2 0x7CC SWAP1 PUSH2 0xE15 JUMP JUMPDEST PUSH1 0x40 MLOAD DUP1 SWAP2 SUB SWAP1 REVERT JUMPDEST PUSH1 0x1 PUSH1 0x4 PUSH1 0x0 DUP4 DUP2 MSTORE PUSH1 0x20 ADD SWAP1 DUP2 MSTORE PUSH1 0x20 ADD PUSH1 0x0 KECCAK256 PUSH1 0x0 PUSH2 0x100 EXP DUP2 SLOAD DUP2 PUSH1 0xFF MUL NOT AND SWAP1 DUP4 ISZERO ISZERO MUL OR SWAP1 SSTORE POP PUSH1 0x1 PUSH1 0x5 DUP4 PUSH1 0x40 MLOAD PUSH2 0x813 SWAP2 SWAP1 PUSH2 0xCF5 JUMP JUMPDEST SWAP1 DUP2 MSTORE PUSH1 0x20 ADD PUSH1 0x40 MLOAD DUP1 SWAP2 SUB SWAP1 KECCAK256 PUSH1 0x0 PUSH2 0x100 EXP DUP2 SLOAD DUP2 PUSH1 0xFF MUL NOT AND SWAP1 DUP4 ISZERO ISZERO MUL OR SWAP1 SSTORE POP PUSH32 0x90F4F8C28C2093CEA4C155471C57DD544CD9B0B1A4E234DB28E7D7BC48BF7541 DUP3 DUP3 PUSH1 0x40 MLOAD PUSH2 0x869 SWAP3 SWAP2 SWAP1 PUSH2 0xD27 JUMP JUMPDEST PUSH1 0x40 MLOAD DUP1 SWAP2 SUB SWAP1 LOG1 POP POP JUMP JUMPDEST PUSH1 0x1 SLOAD DUP2 JUMP JUMPDEST PUSH1 0x4 PUSH1 0x20 MSTORE DUP1 PUSH1 0x0 MSTORE PUSH1 0x40 PUSH1 0x0 KECCAK256 PUSH1 0x0 SWAP2 POP SLOAD SWAP1 PUSH2 0x100 EXP SWAP1 DIV PUSH1 0xFF AND DUP2 JUMP JUMPDEST DUP3 DUP1 SLOAD PUSH2 0x8A7 SWAP1 PUSH2 0xFA8 JUMP JUMPDEST SWAP1 PUSH1 0x0 MSTORE PUSH1 0x20 PUSH1 0x0 KECCAK256 SWAP1 PUSH1 0x1F ADD PUSH1 0x20 SWAP1 DIV DUP2 ADD SWAP3 DUP3 PUSH2 0x8C9 JUMPI PUSH1 0x0 DUP6 SSTORE PUSH2 0x910 JUMP JUMPDEST DUP3 PUSH1 0x1F LT PUSH2 0x8E2 JUMPI DUP1 MLOAD PUSH1 0xFF NOT AND DUP4 DUP1 ADD OR DUP6 SSTORE PUSH2 0x910 JUMP JUMPDEST DUP3 DUP1 ADD PUSH1 0x1 ADD DUP6 SSTORE DUP3 ISZERO PUSH2 0x910 JUMPI SWAP2 DUP3 ADD JUMPDEST DUP3 DUP2 GT ISZERO PUSH2 0x90F JUMPI DUP3 MLOAD DUP3 SSTORE SWAP2 PUSH1 0x20 ADD SWAP2 SWAP1 PUSH1 0x1 ADD SWAP1 PUSH2 0x8F4 JUMP JUMPDEST JUMPDEST POP SWAP1 POP PUSH2 0x91D SWAP2 SWAP1 PUSH2 0x921 JUMP JUMPDEST POP SWAP1 JUMP JUMPDEST JUMPDEST DUP1 DUP3 GT ISZERO PUSH2 0x93A JUMPI PUSH1 0x0 DUP2 PUSH1 0x0 SWAP1 SSTORE POP PUSH1 0x1 ADD PUSH2 0x922 JUMP JUMPDEST POP SWAP1 JUMP JUMPDEST PUSH1 0x0 PUSH2 0x951 PUSH2 0x94C DUP5 PUSH2 0xEEF JUMP JUMPDEST PUSH2 0xEBE JUMP JUMPDEST SWAP1 POP DUP3 DUP2 MSTORE PUSH1 0x20 DUP2 ADD DUP5 DUP5 DUP5 ADD GT ISZERO PUSH2 0x969 JUMPI PUSH1 0x0 DUP1 REVERT JUMPDEST PUSH2 0x974 DUP5 DUP3 DUP6 PUSH2 0xF66 JUMP JUMPDEST POP SWAP4 SWAP3 POP POP POP JUMP JUMPDEST PUSH1 0x0 DUP2 CALLDATALOAD SWAP1 POP PUSH2 0x98B DUP2 PUSH2 0x10C1 JUMP JUMPDEST SWAP3 SWAP2 POP POP JUMP JUMPDEST PUSH1 0x0 DUP3 PUSH1 0x1F DUP4 ADD SLT PUSH2 0x9A2 JUMPI PUSH1 0x0 DUP1 REVERT JUMPDEST DUP2 CALLDATALOAD PUSH2 0x9B2 DUP5 DUP3 PUSH1 0x20 DUP7 ADD PUSH2 0x93E JUMP JUMPDEST SWAP2 POP POP SWAP3 SWAP2 POP POP JUMP JUMPDEST PUSH1 0x0 DUP2 CALLDATALOAD SWAP1 POP PUSH2 0x9CA DUP2 PUSH2 0x10D8 JUMP JUMPDEST SWAP3 SWAP2 POP POP JUMP JUMPDEST PUSH1 0x0 PUSH1 0x20 DUP3 DUP5 SUB SLT ISZERO PUSH2 0x9E2 JUMPI PUSH1 0x0 DUP1 REVERT JUMPDEST PUSH1 0x0 PUSH2 0x9F0 DUP5 DUP3 DUP6 ADD PUSH2 0x97C JUMP JUMPDEST SWAP2 POP POP SWAP3 SWAP2 POP POP JUMP JUMPDEST PUSH1 0x0 PUSH1 0x20 DUP3 DUP5 SUB SLT ISZERO PUSH2 0xA0B JUMPI PUSH1 0x0 DUP1 REVERT JUMPDEST PUSH1 0x0 DUP3 ADD CALLDATALOAD PUSH8 0xFFFFFFFFFFFFFFFF DUP2 GT ISZERO PUSH2 0xA25 JUMPI PUSH1 0x0 DUP1 REVERT JUMPDEST PUSH2 0xA31 DUP5 DUP3 DUP6 ADD PUSH2 0x991 JUMP JUMPDEST SWAP2 POP POP SWAP3 SWAP2 POP POP JUMP JUMPDEST PUSH1 0x0 DUP1 PUSH1 0x40 DUP4 DUP6 SUB SLT ISZERO PUSH2 0xA4D JUMPI PUSH1 0x0 DUP1 REVERT JUMPDEST PUSH1 0x0 DUP4 ADD CALLDATALOAD PUSH8 0xFFFFFFFFFFFFFFFF DUP2 GT ISZERO PUSH2 0xA67 JUMPI PUSH1 0x0 DUP1 REVERT JUMPDEST PUSH2 0xA73 DUP6 DUP3 DUP7 ADD PUSH2 0x991 JUMP JUMPDEST SWAP3 POP POP PUSH1 0x20 PUSH2 0xA84 DUP6 DUP3 DUP7 ADD PUSH2 0x97C JUMP JUMPDEST SWAP2 POP POP SWAP3 POP SWAP3 SWAP1 POP JUMP JUMPDEST PUSH1 0x0 DUP1 PUSH1 0x0 PUSH1 0x60 DUP5 DUP7 SUB SLT ISZERO PUSH2 0xAA3 JUMPI PUSH1 0x0 DUP1 REVERT JUMPDEST PUSH1 0x0 DUP5 ADD CALLDATALOAD PUSH8 0xFFFFFFFFFFFFFFFF DUP2 GT ISZERO PUSH2 0xABD JUMPI PUSH1 0x0 DUP1 REVERT JUMPDEST PUSH2 0xAC9 DUP7 DUP3 DUP8 ADD PUSH2 0x991 JUMP JUMPDEST SWAP4 POP POP PUSH1 0x20 PUSH2 0xADA DUP7 DUP3 DUP8 ADD PUSH2 0x97C JUMP JUMPDEST SWAP3 POP POP PUSH1 0x40 PUSH2 0xAEB DUP7 DUP3 DUP8 ADD PUSH2 0x9BB JUMP JUMPDEST SWAP2 POP POP SWAP3 POP SWAP3 POP SWAP3 JUMP JUMPDEST PUSH1 0x0 PUSH1 0x20 DUP3 DUP5 SUB SLT ISZERO PUSH2 0xB07 JUMPI PUSH1 0x0 DUP1 REVERT JUMPDEST PUSH1 0x0 PUSH2 0xB15 DUP5 DUP3 DUP6 ADD PUSH2 0x9BB JUMP JUMPDEST SWAP2 POP POP SWAP3 SWAP2 POP POP JUMP JUMPDEST PUSH2 0xB27 DUP2 PUSH2 0xF46 JUMP JUMPDEST DUP3 MSTORE POP POP JUMP JUMPDEST PUSH2 0xB36 DUP2 PUSH2 0xF52 JUMP JUMPDEST DUP3 MSTORE POP POP JUMP JUMPDEST PUSH1 0x0 PUSH2 0xB47 DUP3 PUSH2 0xF1F JUMP JUMPDEST PUSH2 0xB51 DUP2 DUP6 PUSH2 0xF2A JUMP JUMPDEST SWAP4 POP PUSH2 0xB61 DUP2 DUP6 PUSH1 0x20 DUP7 ADD PUSH2 0xF75 JUMP JUMPDEST PUSH2 0xB6A DUP2 PUSH2 0x10B0 JUMP JUMPDEST DUP5 ADD SWAP2 POP POP SWAP3 SWAP2 POP POP JUMP JUMPDEST PUSH1 0x0 PUSH2 0xB80 DUP3 PUSH2 0xF1F JUMP JUMPDEST PUSH2 0xB8A DUP2 DUP6 PUSH2 0xF3B JUMP JUMPDEST SWAP4 POP PUSH2 0xB9A DUP2 DUP6 PUSH1 0x20 DUP7 ADD PUSH2 0xF75 JUMP JUMPDEST DUP1 DUP5 ADD SWAP2 POP POP SWAP3 SWAP2 POP POP JUMP JUMPDEST PUSH1 0x0 PUSH2 0xBB3 PUSH1 0x11 DUP4 PUSH2 0xF2A JUMP JUMPDEST SWAP2 POP PUSH32 0x496E76616C69642063616E646964617465000000000000000000000000000000 PUSH1 0x0 DUP4 ADD MSTORE PUSH1 0x20 DUP3 ADD SWAP1 POP SWAP2 SWAP1 POP JUMP JUMPDEST PUSH1 0x0 PUSH2 0xBF3 PUSH1 0x11 DUP4 PUSH2 0xF2A JUMP JUMPDEST SWAP2 POP PUSH32 0x4661636520616C72656164792075736564000000000000000000000000000000 PUSH1 0x0 DUP4 ADD MSTORE PUSH1 0x20 DUP3 ADD SWAP1 POP SWAP2 SWAP1 POP JUMP JUMPDEST PUSH1 0x0 PUSH2 0xC33 PUSH1 0x1E DUP4 PUSH2 0xF2A JUMP JUMPDEST SWAP2 POP PUSH32 0x596F7520616C726561647920766F7465642028656E726F6C6C6D656E74290000 PUSH1 0x0 DUP4 ADD MSTORE PUSH1 0x20 DUP3 ADD SWAP1 POP SWAP2 SWAP1 POP JUMP JUMPDEST PUSH1 0x0 PUSH2 0xC73 PUSH1 0x17 DUP4 PUSH2 0xF2A JUMP JUMPDEST SWAP2 POP PUSH32 0x4661636520616C72656164792072656769737465726564000000000000000000 PUSH1 0x0 DUP4 ADD MSTORE PUSH1 0x20 DUP3 ADD SWAP1 POP SWAP2 SWAP1 POP JUMP JUMPDEST PUSH1 0x0 PUSH2 0xCB3 PUSH1 0x1D DUP4 PUSH2 0xF2A JUMP JUMPDEST SWAP2 POP PUSH32 0x456E726F6C6C6D656E7420616C72656164792072656769737465726564000000 PUSH1 0x0 DUP4 ADD MSTORE PUSH1 0x20 DUP3 ADD SWAP1 POP SWAP2 SWAP1 POP JUMP JUMPDEST PUSH2 0xCEF DUP2 PUSH2 0xF5C JUMP JUMPDEST DUP3 MSTORE POP POP JUMP JUMPDEST PUSH1 0x0 PUSH2 0xD01 DUP3 DUP5 PUSH2 0xB75 JUMP JUMPDEST SWAP2 POP DUP2 SWAP1 POP SWAP3 SWAP2 POP POP JUMP JUMPDEST PUSH1 0x0 PUSH1 0x20 DUP3 ADD SWAP1 POP PUSH2 0xD21 PUSH1 0x0 DUP4 ADD DUP5 PUSH2 0xB1E JUMP JUMPDEST SWAP3 SWAP2 POP POP JUMP JUMPDEST PUSH1 0x0 PUSH1 0x40 DUP3 ADD SWAP1 POP DUP2 DUP2 SUB PUSH1 0x0 DUP4 ADD MSTORE PUSH2 0xD41 DUP2 DUP6 PUSH2 0xB3C JUMP JUMPDEST SWAP1 POP PUSH2 0xD50 PUSH1 0x20 DUP4 ADD DUP5 PUSH2 0xB2D JUMP JUMPDEST SWAP4 SWAP3 POP POP POP JUMP JUMPDEST PUSH1 0x0 PUSH1 0x60 DUP3 ADD SWAP1 POP DUP2 DUP2 SUB PUSH1 0x0 DUP4 ADD MSTORE PUSH2 0xD71 DUP2 DUP7 PUSH2 0xB3C JUMP JUMPDEST SWAP1 POP PUSH2 0xD80 PUSH1 0x20 DUP4 ADD DUP6 PUSH2 0xB2D JUMP JUMPDEST PUSH2 0xD8D PUSH1 0x40 DUP4 ADD DUP5 PUSH2 0xCE6 JUMP JUMPDEST SWAP5 SWAP4 POP POP POP POP JUMP JUMPDEST PUSH1 0x0 PUSH1 0x20 DUP3 ADD SWAP1 POP DUP2 DUP2 SUB PUSH1 0x0 DUP4 ADD MSTORE PUSH2 0xDAE DUP2 PUSH2 0xBA6 JUMP JUMPDEST SWAP1 POP SWAP2 SWAP1 POP JUMP JUMPDEST PUSH1 0x0 PUSH1 0x20 DUP3 ADD SWAP1 POP DUP2 DUP2 SUB PUSH1 0x0 DUP4 ADD MSTORE PUSH2 0xDCE DUP2 PUSH2 0xBE6 JUMP JUMPDEST SWAP1 POP SWAP2 SWAP1 POP JUMP JUMPDEST PUSH1 0x0 PUSH1 0x20 DUP3 ADD SWAP1 POP DUP2 DUP2 SUB PUSH1 0x0 DUP4 ADD MSTORE PUSH2 0xDEE DUP2 PUSH2 0xC26 JUMP JUMPDEST SWAP1 POP SWAP2 SWAP1 POP JUMP JUMPDEST PUSH1 0x0 PUSH1 0x20 DUP3 ADD SWAP1 POP DUP2 DUP2 SUB PUSH1 0x0 DUP4 ADD MSTORE PUSH2 0xE0E DUP2 PUSH2 0xC66 JUMP JUMPDEST SWAP1 POP SWAP2 SWAP1 POP JUMP JUMPDEST PUSH1 0x0 PUSH1 0x20 DUP3 ADD SWAP1 POP DUP2 DUP2 SUB PUSH1 0x0 DUP4 ADD MSTORE PUSH2 0xE2E DUP2 PUSH2 0xCA6 JUMP JUMPDEST SWAP1 POP SWAP2 SWAP1 POP JUMP JUMPDEST PUSH1 0x0 PUSH1 0x20 DUP3 ADD SWAP1 POP PUSH2 0xE4A PUSH1 0x0 DUP4 ADD DUP5 PUSH2 0xCE6 JUMP JUMPDEST SWAP3 SWAP2 POP POP JUMP JUMPDEST PUSH1 0x0 PUSH1 0x40 DUP3 ADD SWAP1 POP PUSH2 0xE65 PUSH1 0x0 DUP4 ADD DUP6 PUSH2 0xCE6 JUMP JUMPDEST DUP2 DUP2 SUB PUSH1 0x20 DUP4 ADD MSTORE PUSH2 0xE77 DUP2 DUP5 PUSH2 0xB3C JUMP JUMPDEST SWAP1 POP SWAP4 SWAP3 POP POP POP JUMP JUMPDEST PUSH1 0x0 PUSH1 0x60 DUP3 ADD SWAP1 POP PUSH2 0xE95 PUSH1 0x0 DUP4 ADD DUP7 PUSH2 0xCE6 JUMP JUMPDEST DUP2 DUP2 SUB PUSH1 0x20 DUP4 ADD MSTORE PUSH2 0xEA7 DUP2 DUP6 PUSH2 0xB3C JUMP JUMPDEST SWAP1 POP PUSH2 0xEB6 PUSH1 0x40 DUP4 ADD DUP5 PUSH2 0xCE6 JUMP JUMPDEST SWAP5 SWAP4 POP POP POP POP JUMP JUMPDEST PUSH1 0x0 PUSH1 0x40 MLOAD SWAP1 POP DUP2 DUP2 ADD DUP2 DUP2 LT PUSH8 0xFFFFFFFFFFFFFFFF DUP3 GT OR ISZERO PUSH2 0xEE5 JUMPI PUSH2 0xEE4 PUSH2 0x1081 JUMP JUMPDEST JUMPDEST DUP1 PUSH1 0x40 MSTORE POP SWAP2 SWAP1 POP JUMP JUMPDEST PUSH1 0x0 PUSH8 0xFFFFFFFFFFFFFFFF DUP3 GT ISZERO PUSH2 0xF0A JUMPI PUSH2 0xF09 PUSH2 0x1081 JUMP JUMPDEST JUMPDEST PUSH1 0x1F NOT PUSH1 0x1F DUP4 ADD AND SWAP1 POP PUSH1 0x20 DUP2 ADD SWAP1 POP SWAP2 SWAP1 POP JUMP JUMPDEST PUSH1 0x0 DUP2 MLOAD SWAP1 POP SWAP2 SWAP1 POP JUMP JUMPDEST PUSH1 0x0 DUP3 DUP3 MSTORE PUSH1 0x20 DUP3 ADD SWAP1 POP SWAP3 SWAP2 POP POP JUMP JUMPDEST PUSH1 0x0 DUP2 SWAP1 POP SWAP3 SWAP2 POP POP JUMP JUMPDEST PUSH1 0x0 DUP2 ISZERO ISZERO SWAP1 POP SWAP2 SWAP1 POP JUMP JUMPDEST PUSH1 0x0 DUP2 SWAP1 POP SWAP2 SWAP1 POP JUMP JUMPDEST PUSH1 0x0 DUP2 SWAP1 POP SWAP2 SWAP1 POP JUMP JUMPDEST DUP3 DUP2 DUP4 CALLDATACOPY PUSH1 0x0 DUP4 DUP4 ADD MSTORE POP POP POP JUMP JUMPDEST PUSH1 0x0 JUMPDEST DUP4 DUP2 LT ISZERO PUSH2 0xF93 JUMPI DUP1 DUP3 ADD MLOAD DUP2 DUP5 ADD MSTORE PUSH1 0x20 DUP2 ADD SWAP1 POP PUSH2 0xF78 JUMP JUMPDEST DUP4 DUP2 GT ISZERO PUSH2 0xFA2 JUMPI PUSH1 0x0 DUP5 DUP5 ADD MSTORE JUMPDEST POP POP POP POP JUMP JUMPDEST PUSH1 0x0 PUSH1 0x2 DUP3 DIV SWAP1 POP PUSH1 0x1 DUP3 AND DUP1 PUSH2 0xFC0 JUMPI PUSH1 0x7F DUP3 AND SWAP2 POP JUMPDEST PUSH1 0x20 DUP3 LT DUP2 EQ ISZERO PUSH2 0xFD4 JUMPI PUSH2 0xFD3 PUSH2 0x1052 JUMP JUMPDEST JUMPDEST POP SWAP2 SWAP1 POP JUMP JUMPDEST PUSH1 0x0 PUSH2 0xFE5 DUP3 PUSH2 0xF5C JUMP JUMPDEST SWAP2 POP PUSH32 0xFFFFFFFFFFFFFFFFFFFFFFFFFFFFFFFFFFFFFFFFFFFFFFFFFFFFFFFFFFFFFFFF DUP3 EQ ISZERO PUSH2 0x1018 JUMPI PUSH2 0x1017 PUSH2 0x1023 JUMP JUMPDEST JUMPDEST PUSH1 0x1 DUP3 ADD SWAP1 POP SWAP2 SWAP1 POP JUMP JUMPDEST PUSH32 0x4E487B7100000000000000000000000000000000000000000000000000000000 PUSH1 0x0 MSTORE PUSH1 0x11 PUSH1 0x4 MSTORE PUSH1 0x24 PUSH1 0x0 REVERT JUMPDEST PUSH32 0x4E487B7100000000000000000000000000000000000000000000000000000000 PUSH1 0x0 MSTORE PUSH1 0x22 PUSH1 0x4 MSTORE PUSH1 0x24 PUSH1 0x0 REVERT JUMPDEST PUSH32 0x4E487B7100000000000000000000000000000000000000000000000000000000 PUSH1 0x0 MSTORE PUSH1 0x41 PUSH1 0x4 MSTORE PUSH1 0x24 PUSH1 0x0 REVERT JUMPDEST PUSH1 0x0 PUSH1 0x1F NOT PUSH1 0x1F DUP4 ADD AND SWAP1 POP SWAP2 SWAP1 POP JUMP JUMPDEST PUSH2 0x10CA DUP2 PUSH2 0xF52 JUMP JUMPDEST DUP2 EQ PUSH2 0x10D5 JUMPI PUSH1 0x0 DUP1 REVERT JUMPDEST POP JUMP JUMPDEST PUSH2 0x10E1 DUP2 PUSH2 0xF5C JUMP JUMPDEST DUP2 EQ PUSH2 0x10EC JUMPI PUSH1 0x0 DUP1 REVERT JUMPDEST POP JUMP INVALID LOG2 PUSH5 0x6970667358 0x22 SLT KECCAK256 0xD9 SWAP1 0xD8 0x5F 0xD4 ADD PUSH30 0x78D7E34388F548FD2CD5D77E8B3E5A3C408973B3D0C01C5AF464736F6C63 NUMBER STOP ADDMOD STOP STOP CALLER "
				},
				"gasEstimates": {
					"creation": {
						"codeDepositCost": "877800",
						"executionCost": "916",
						"totalCost": "878716"
					},
					"external": {
						"addCandidate(string)": "infinite",
						"candidateCount()": "1195",
						"candidates(uint256)": "infinite",
						"getCandidate(uint256)": "infinite",
						"hasVoted(string)": "infinite",
						"registerVoter(string,bytes32)": "infinite",
						"registeredEnrollment(string)": "infinite",
						"registeredFace(bytes32)": "1584",
						"usedFace(bytes32)": "1496",
						"vote(string,bytes32,uint256)": "infinite"
					}
				},
				"methodIdentifiers": {
					"addCandidate(string)": "462e91ec",
					"candidateCount()": "a9a981a3",
					"candidates(uint256)": "3477ee2e",
					"getCandidate(uint256)": "35b8e820",
					"hasVoted(string)": "39bfeae3",
					"registerVoter(string,bytes32)": "80263e7a",
					"registeredEnrollment(string)": "4ef70324",
					"registeredFace(bytes32)": "b1abc372",
					"usedFace(bytes32)": "637239c5",
					"vote(string,bytes32,uint256)": "703a4d76"
				}
			},
			"storageLayout": {
				"storage": [
					{
						"astId": 13,
						"contract": "contracts/managedelection.sol:ManageElection",
						"label": "candidates",
						"offset": 0,
						"slot": "0",
						"type": "t_mapping(t_uint256,t_struct(Candidate)8_storage)"
					},
					{
						"astId": 15,
						"contract": "contracts/managedelection.sol:ManageElection",
						"label": "candidateCount",
						"offset": 0,
						"slot": "1",
						"type": "t_uint256"
					},
					{
						"astId": 19,
						"contract": "contracts/managedelection.sol:ManageElection",
						"label": "hasVoted",
						"offset": 0,
						"slot": "2",
						"type": "t_mapping(t_string_memory_ptr,t_bool)"
					},
					{
						"astId": 23,
						"contract": "contracts/managedelection.sol:ManageElection",
						"label": "usedFace",
						"offset": 0,
						"slot": "3",
						"type": "t_mapping(t_bytes32,t_bool)"
					},
					{
						"astId": 27,
						"contract": "contracts/managedelection.sol:ManageElection",
						"label": "registeredFace",
						"offset": 0,
						"slot": "4",
						"type": "t_mapping(t_bytes32,t_bool)"
					},
					{
						"astId": 31,
						"contract": "contracts/managedelection.sol:ManageElection",
						"label": "registeredEnrollment",
						"offset": 0,
						"slot": "5",
						"type": "t_mapping(t_string_memory_ptr,t_bool)"
					}
				],
				"types": {
					"t_bool": {
						"encoding": "inplace",
						"label": "bool",
						"numberOfBytes": "1"
					},
					"t_bytes32": {
						"encoding": "inplace",
						"label": "bytes32",
						"numberOfBytes": "32"
					},
					"t_mapping(t_bytes32,t_bool)": {
						"encoding": "mapping",
						"key": "t_bytes32",
						"label": "mapping(bytes32 => bool)",
						"numberOfBytes": "32",
						"value": "t_bool"
					},
					"t_mapping(t_string_memory_ptr,t_bool)": {
						"encoding": "mapping",
						"key": "t_string_memory_ptr",
						"label": "mapping(string => bool)",
						"numberOfBytes": "32",
						"value": "t_bool"
					},
					"t_mapping(t_uint256,t_struct(Candidate)8_storage)": {
						"encoding": "mapping",
						"key": "t_uint256",
						"label": "mapping(uint256 => struct ManageElection.Candidate)",
						"numberOfBytes": "32",
						"value": "t_struct(Candidate)8_storage"
					},
					"t_string_memory_ptr": {
						"encoding": "bytes",
						"label": "string",
						"numberOfBytes": "32"
					},
					"t_string_storage": {
						"encoding": "bytes",
						"label": "string",
						"numberOfBytes": "32"
					},
					"t_struct(Candidate)8_storage": {
						"encoding": "inplace",
						"label": "struct ManageElection.Candidate",
						"members": [
							{
								"astId": 3,
								"contract": "contracts/managedelection.sol:ManageElection",
								"label": "id",
								"offset": 0,
								"slot": "0",
								"type": "t_uint256"
							},
							{
								"astId": 5,
								"contract": "contracts/managedelection.sol:ManageElection",
								"label": "name",
								"offset": 0,
								"slot": "1",
								"type": "t_string_storage"
							},
							{
								"astId": 7,
								"contract": "contracts/managedelection.sol:ManageElection",
								"label": "voteCount",
								"offset": 0,
								"slot": "2",
								"type": "t_uint256"
							}
						],
						"numberOfBytes": "96"
					},
					"t_uint256": {
						"encoding": "inplace",
						"label": "uint256",
						"numberOfBytes": "32"
					}
				}
			},
			"userdoc": {
				"kind": "user",
				"methods": {},
				"version": 1
			}
		}
	}
}